{
  "_format": "hh-sol-artifact-1",
  "contractName": "StrongHands",
  "sourceName": "contracts/StrongHands.sol",
  "abi": [
    {
      "inputs": [
        {
          "internalType": "uint256",
          "name": "_timeframe",
          "type": "uint256"
        },
        {
          "internalType": "contract IWETHGateway",
          "name": "_gateway",
          "type": "address"
        },
        {
          "internalType": "contract IAToken",
          "name": "_aWETH",
          "type": "address"
        },
        {
          "internalType": "address",
          "name": "_lendingPoolAddress",
          "type": "address"
        }
      ],
      "stateMutability": "nonpayable",
      "type": "constructor"
    },
    {
      "anonymous": false,
      "inputs": [
        {
          "indexed": false,
          "internalType": "address",
          "name": "sender",
          "type": "address"
        },
        {
          "indexed": false,
          "internalType": "uint256",
          "name": "value",
          "type": "uint256"
        },
        {
          "indexed": false,
          "internalType": "uint256",
          "name": "lockedUntil",
          "type": "uint256"
        }
      ],
      "name": "Deposited",
      "type": "event"
    },
    {
      "anonymous": false,
      "inputs": [
        {
          "indexed": true,
          "internalType": "address",
          "name": "previousOwner",
          "type": "address"
        },
        {
          "indexed": true,
          "internalType": "address",
          "name": "newOwner",
          "type": "address"
        }
      ],
      "name": "OwnershipTransferred",
      "type": "event"
    },
    {
      "anonymous": false,
      "inputs": [
        {
          "indexed": false,
          "internalType": "address",
          "name": "sender",
          "type": "address"
        },
        {
          "indexed": false,
          "internalType": "uint256",
          "name": "value",
          "type": "uint256"
        },
        {
          "indexed": false,
          "internalType": "uint256",
          "name": "penalty",
          "type": "uint256"
        }
      ],
      "name": "Withdrew",
      "type": "event"
    },
    {
      "inputs": [],
      "name": "BASIS_POINT",
      "outputs": [
        {
          "internalType": "uint256",
          "name": "",
          "type": "uint256"
        }
      ],
      "stateMutability": "view",
      "type": "function"
    },
    {
      "inputs": [],
      "name": "aWETH",
      "outputs": [
        {
          "internalType": "contract IAToken",
          "name": "",
          "type": "address"
        }
      ],
      "stateMutability": "view",
      "type": "function"
    },
    {
      "inputs": [],
      "name": "deposit",
      "outputs": [],
      "stateMutability": "payable",
      "type": "function"
    },
    {
      "inputs": [
        {
          "internalType": "uint256",
          "name": "",
          "type": "uint256"
        }
      ],
      "name": "depositors",
      "outputs": [
        {
          "internalType": "address",
          "name": "",
          "type": "address"
        }
      ],
      "stateMutability": "view",
      "type": "function"
    },
    {
      "inputs": [
        {
          "internalType": "address",
          "name": "",
          "type": "address"
        }
      ],
      "name": "deposits",
      "outputs": [
        {
          "internalType": "uint256",
          "name": "",
          "type": "uint256"
        }
      ],
      "stateMutability": "view",
      "type": "function"
    },
    {
      "inputs": [],
      "name": "gateway",
      "outputs": [
        {
          "internalType": "contract IWETHGateway",
          "name": "",
          "type": "address"
        }
      ],
      "stateMutability": "view",
      "type": "function"
    },
    {
      "inputs": [],
      "name": "lendingPoolAddress",
      "outputs": [
        {
          "internalType": "address",
          "name": "",
          "type": "address"
        }
      ],
      "stateMutability": "view",
      "type": "function"
    },
    {
      "inputs": [
        {
          "internalType": "address",
          "name": "",
          "type": "address"
        }
      ],
      "name": "lockPeriods",
      "outputs": [
        {
          "internalType": "uint256",
          "name": "",
          "type": "uint256"
        }
      ],
      "stateMutability": "view",
      "type": "function"
    },
    {
      "inputs": [],
      "name": "owner",
      "outputs": [
        {
          "internalType": "address",
          "name": "",
          "type": "address"
        }
      ],
      "stateMutability": "view",
      "type": "function"
    },
    {
      "inputs": [],
      "name": "penalties",
      "outputs": [
        {
          "internalType": "uint256",
          "name": "",
          "type": "uint256"
        }
      ],
      "stateMutability": "view",
      "type": "function"
    },
    {
      "inputs": [],
      "name": "redeem",
      "outputs": [
        {
          "internalType": "bool",
          "name": "",
          "type": "bool"
        }
      ],
      "stateMutability": "nonpayable",
      "type": "function"
    },
    {
      "inputs": [],
      "name": "renounceOwnership",
      "outputs": [],
      "stateMutability": "nonpayable",
      "type": "function"
    },
    {
      "inputs": [],
      "name": "timeframe",
      "outputs": [
        {
          "internalType": "uint256",
          "name": "",
          "type": "uint256"
        }
      ],
      "stateMutability": "view",
      "type": "function"
    },
    {
      "inputs": [],
      "name": "totalDeposit",
      "outputs": [
        {
          "internalType": "uint256",
          "name": "",
          "type": "uint256"
        }
      ],
      "stateMutability": "view",
      "type": "function"
    },
    {
      "inputs": [],
      "name": "totalDepositors",
      "outputs": [
        {
          "internalType": "uint256",
          "name": "",
          "type": "uint256"
        }
      ],
      "stateMutability": "view",
      "type": "function"
    },
    {
      "inputs": [
        {
          "internalType": "address",
          "name": "newOwner",
          "type": "address"
        }
      ],
      "name": "transferOwnership",
      "outputs": [],
      "stateMutability": "nonpayable",
      "type": "function"
    },
    {
      "inputs": [],
      "name": "withdraw",
      "outputs": [
        {
          "internalType": "bool",
          "name": "",
          "type": "bool"
        }
      ],
      "stateMutability": "nonpayable",
      "type": "function"
    },
    {
      "stateMutability": "payable",
      "type": "receive"
    }
  ],
  "bytecode": "0x6101006040523480156200001257600080fd5b5060405162001dcb38038062001dcb833981810160405281019062000038919062000301565b620000586200004c6200010660201b60201c565b6200010e60201b60201c565b83608081815250508273ffffffffffffffffffffffffffffffffffffffff1660a08173ffffffffffffffffffffffffffffffffffffffff16815250508173ffffffffffffffffffffffffffffffffffffffff1660c08173ffffffffffffffffffffffffffffffffffffffff16815250508073ffffffffffffffffffffffffffffffffffffffff1660e08173ffffffffffffffffffffffffffffffffffffffff16815250505050505062000373565b600033905090565b60008060009054906101000a900473ffffffffffffffffffffffffffffffffffffffff169050816000806101000a81548173ffffffffffffffffffffffffffffffffffffffff021916908373ffffffffffffffffffffffffffffffffffffffff1602179055508173ffffffffffffffffffffffffffffffffffffffff168173ffffffffffffffffffffffffffffffffffffffff167f8be0079c531659141344cd1fd0a4f28419497f9722a3daafe3b4186f6b6457e060405160405180910390a35050565b600080fd5b6000819050919050565b620001ec81620001d7565b8114620001f857600080fd5b50565b6000815190506200020c81620001e1565b92915050565b600073ffffffffffffffffffffffffffffffffffffffff82169050919050565b60006200023f8262000212565b9050919050565b6000620002538262000232565b9050919050565b620002658162000246565b81146200027157600080fd5b50565b60008151905062000285816200025a565b92915050565b6000620002988262000232565b9050919050565b620002aa816200028b565b8114620002b657600080fd5b50565b600081519050620002ca816200029f565b92915050565b620002db8162000232565b8114620002e757600080fd5b50565b600081519050620002fb81620002d0565b92915050565b600080600080608085870312156200031e576200031d620001d2565b5b60006200032e87828801620001fb565b9450506020620003418782880162000274565b93505060406200035487828801620002b9565b92505060606200036787828801620002ea565b91505092959194509250565b60805160a05160c05160e0516119ca620004016000396000818161073401528181610cca0152610e59015260008181610639015281816108b50152818161094b01528181610a3c0152610ac70152600081816103ea01528181610675015281816106f80152610c8d0152600081816104d80152818161091b01528181610e14015261111201526119ca6000f3fe6080604052600436106101025760003560e01c8063ba59b66f11610095578063d3ae26b311610064578063d3ae26b3146102ef578063e4b2fb791461031a578063f2fde38b14610357578063f6153ccd14610380578063fc7e286d146103ab57610109565b8063ba59b66f14610252578063be040fb01461027d578063cc028993146102a8578063d0e30db0146102e557610109565b80636d2a583a116100d15780636d2a583a146101ba578063715018a6146101e55780638da5cb5b146101fc578063ada5f6421461022757610109565b8063116191b61461010e5780633ccfd60b14610139578063418f31281461016457806342b53a751461018f57610109565b3661010957005b600080fd5b34801561011a57600080fd5b506101236103e8565b60405161013091906111f7565b60405180910390f35b34801561014557600080fd5b5061014e61040c565b60405161015b919061122d565b60405180910390f35b34801561017057600080fd5b506101796108a7565b6040516101869190611261565b60405180910390f35b34801561019b57600080fd5b506101a46108ad565b6040516101b19190611261565b60405180910390f35b3480156101c657600080fd5b506101cf6108b3565b6040516101dc919061129d565b60405180910390f35b3480156101f157600080fd5b506101fa6108d7565b005b34801561020857600080fd5b506102116108eb565b60405161021e91906112d9565b60405180910390f35b34801561023357600080fd5b5061023c610914565b6040516102499190611261565b60405180910390f35b34801561025e57600080fd5b50610267610919565b6040516102749190611261565b60405180910390f35b34801561028957600080fd5b5061029261093d565b60405161029f919061122d565b60405180910390f35b3480156102b457600080fd5b506102cf60048036038101906102ca9190611325565b610b6d565b6040516102dc9190611261565b60405180910390f35b6102ed610b85565b005b3480156102fb57600080fd5b50610304610e57565b60405161031191906112d9565b60405180910390f35b34801561032657600080fd5b50610341600480360381019061033c919061137e565b610e7b565b60405161034e91906112d9565b60405180910390f35b34801561036357600080fd5b5061037e60048036038101906103799190611325565b610eba565b005b34801561038c57600080fd5b50610395610f3d565b6040516103a29190611261565b60405180910390f35b3480156103b757600080fd5b506103d260048036038101906103cd9190611325565b610f43565b6040516103df9190611261565b60405180910390f35b7f000000000000000000000000000000000000000000000000000000000000000081565b600080600460003373ffffffffffffffffffffffffffffffffffffffff1673ffffffffffffffffffffffffffffffffffffffff168152602001908152602001600020541161048f576040517f08c379a000000000000000000000000000000000000000000000000000000000815260040161048690611408565b60405180910390fd5b6000600460003373ffffffffffffffffffffffffffffffffffffffff1673ffffffffffffffffffffffffffffffffffffffff1681526020019081526020016000205490506000807f0000000000000000000000000000000000000000000000000000000000000000600560003373ffffffffffffffffffffffffffffffffffffffff1673ffffffffffffffffffffffffffffffffffffffff168152602001908152602001600020546105419190611457565b4211156105c4576000610595600460003373ffffffffffffffffffffffffffffffffffffffff1673ffffffffffffffffffffffffffffffffffffffff16815260200190815260200160002054600254610f5b565b905080600260008282546105a991906114ad565b9250508190555080846105bc9190611457565b915050610637565b61060d83600560003373ffffffffffffffffffffffffffffffffffffffff1673ffffffffffffffffffffffffffffffffffffffff16815260200190815260200160002054610f9b565b915081600260008282546106219190611457565b92505081905550818361063491906114ad565b90505b7f000000000000000000000000000000000000000000000000000000000000000073ffffffffffffffffffffffffffffffffffffffff1663095ea7b37f0000000000000000000000000000000000000000000000000000000000000000836040518363ffffffff1660e01b81526004016106b29291906114e1565b6020604051808303816000875af11580156106d1573d6000803e3d6000fd5b505050506040513d601f19601f820116820180604052508101906106f59190611536565b507f000000000000000000000000000000000000000000000000000000000000000073ffffffffffffffffffffffffffffffffffffffff166380500d207f000000000000000000000000000000000000000000000000000000000000000083306040518463ffffffff1660e01b815260040161077393929190611563565b600060405180830381600087803b15801561078d57600080fd5b505af11580156107a1573d6000803e3d6000fd5b50505050600360008154809291906107b89061159a565b91905055506000600460003373ffffffffffffffffffffffffffffffffffffffff1673ffffffffffffffffffffffffffffffffffffffff16815260200190815260200160002081905550826001600082825461081491906114ad565b925050819055503373ffffffffffffffffffffffffffffffffffffffff166108fc829081150290604051600060405180830381858888f19350505050158015610861573d6000803e3d6000fd5b507fadec52fcd1408589179b85e44b434374db078b4eaf793e7d1a1bb0ae4ecfeee5338284604051610895939291906115c3565b60405180910390a16001935050505090565b60035481565b60025481565b7f000000000000000000000000000000000000000000000000000000000000000081565b6108df610fca565b6108e96000611048565b565b60008060009054906101000a900473ffffffffffffffffffffffffffffffffffffffff16905090565b606481565b7f000000000000000000000000000000000000000000000000000000000000000081565b6000610947610fca565b60007f000000000000000000000000000000000000000000000000000000000000000073ffffffffffffffffffffffffffffffffffffffff166370a08231306040518263ffffffff1660e01b81526004016109a291906112d9565b602060405180830381865afa1580156109bf573d6000803e3d6000fd5b505050506040513d601f19601f820116820180604052508101906109e3919061160f565b90506000600154826109f591906114ad565b905060008111610a3a576040517f08c379a0000000000000000000000000000000000000000000000000000000008152600401610a3190611688565b60405180910390fd5b7f000000000000000000000000000000000000000000000000000000000000000073ffffffffffffffffffffffffffffffffffffffff1663db006a75826040518263ffffffff1660e01b8152600401610a939190611261565b600060405180830381600087803b158015610aad57600080fd5b505af1158015610ac1573d6000803e3d6000fd5b505050507f000000000000000000000000000000000000000000000000000000000000000073ffffffffffffffffffffffffffffffffffffffff1663a9059cbb33836040518363ffffffff1660e01b8152600401610b209291906114e1565b6020604051808303816000875af1158015610b3f573d6000803e3d6000fd5b505050506040513d601f19601f82011682018060405250810190610b639190611536565b5060019250505090565b60056020528060005260406000206000915090505481565b60003411610bc8576040517f08c379a0000000000000000000000000000000000000000000000000000000008152600401610bbf906116f4565b60405180910390fd5b6000600460003373ffffffffffffffffffffffffffffffffffffffff1673ffffffffffffffffffffffffffffffffffffffff1681526020019081526020016000205403610c8b5760036000815480929190610c2290611714565b91905055506006339080600181540180825580915050600190039060005260206000200160009091909190916101000a81548173ffffffffffffffffffffffffffffffffffffffff021916908373ffffffffffffffffffffffffffffffffffffffff1602179055505b7f000000000000000000000000000000000000000000000000000000000000000073ffffffffffffffffffffffffffffffffffffffff1663474cf53d347f00000000000000000000000000000000000000000000000000000000000000003060006040518563ffffffff1660e01b8152600401610d0a939291906117a5565b6000604051808303818588803b158015610d2357600080fd5b505af1158015610d37573d6000803e3d6000fd5b50505050503460016000828254610d4e9190611457565b9250508190555034600460003373ffffffffffffffffffffffffffffffffffffffff1673ffffffffffffffffffffffffffffffffffffffff1681526020019081526020016000206000828254610da49190611457565b9250508190555042600560003373ffffffffffffffffffffffffffffffffffffffff1673ffffffffffffffffffffffffffffffffffffffff168152602001908152602001600020819055507f73a19dd210f1a7f902193214c0ee91dd35ee5b4d920cba8d519eca65a7b488ca33347f000000000000000000000000000000000000000000000000000000000000000042610e3e9190611457565b604051610e4d939291906115c3565b60405180910390a1565b7f000000000000000000000000000000000000000000000000000000000000000081565b60068181548110610e8b57600080fd5b906000526020600020016000915054906101000a900473ffffffffffffffffffffffffffffffffffffffff1681565b610ec2610fca565b600073ffffffffffffffffffffffffffffffffffffffff168173ffffffffffffffffffffffffffffffffffffffff1603610f31576040517f08c379a0000000000000000000000000000000000000000000000000000000008152600401610f289061184e565b60405180910390fd5b610f3a81611048565b50565b60015481565b60046020528060005260406000206000915090505481565b600080600154606485610f6e919061186e565b610f7891906118f7565b905060648184610f88919061186e565b610f9291906118f7565b91505092915050565b600080610fa78361110c565b905060648185610fb7919061186e565b610fc191906118f7565b91505092915050565b610fd2611170565b73ffffffffffffffffffffffffffffffffffffffff16610ff06108eb565b73ffffffffffffffffffffffffffffffffffffffff1614611046576040517f08c379a000000000000000000000000000000000000000000000000000000000815260040161103d90611974565b60405180910390fd5b565b60008060009054906101000a900473ffffffffffffffffffffffffffffffffffffffff169050816000806101000a81548173ffffffffffffffffffffffffffffffffffffffff021916908373ffffffffffffffffffffffffffffffffffffffff1602179055508173ffffffffffffffffffffffffffffffffffffffff168173ffffffffffffffffffffffffffffffffffffffff167f8be0079c531659141344cd1fd0a4f28419497f9722a3daafe3b4186f6b6457e060405160405180910390a35050565b600060027f00000000000000000000000000000000000000000000000000000000000000006064844261113f91906114ad565b611149919061186e565b61115391906118f7565b606461115f91906114ad565b61116991906118f7565b9050919050565b600033905090565b600073ffffffffffffffffffffffffffffffffffffffff82169050919050565b6000819050919050565b60006111bd6111b86111b384611178565b611198565b611178565b9050919050565b60006111cf826111a2565b9050919050565b60006111e1826111c4565b9050919050565b6111f1816111d6565b82525050565b600060208201905061120c60008301846111e8565b92915050565b60008115159050919050565b61122781611212565b82525050565b6000602082019050611242600083018461121e565b92915050565b6000819050919050565b61125b81611248565b82525050565b60006020820190506112766000830184611252565b92915050565b6000611287826111c4565b9050919050565b6112978161127c565b82525050565b60006020820190506112b2600083018461128e565b92915050565b60006112c382611178565b9050919050565b6112d3816112b8565b82525050565b60006020820190506112ee60008301846112ca565b92915050565b600080fd5b611302816112b8565b811461130d57600080fd5b50565b60008135905061131f816112f9565b92915050565b60006020828403121561133b5761133a6112f4565b5b600061134984828501611310565b91505092915050565b61135b81611248565b811461136657600080fd5b50565b60008135905061137881611352565b92915050565b600060208284031215611394576113936112f4565b5b60006113a284828501611369565b91505092915050565b600082825260208201905092915050565b7f4e6f206465706f73697400000000000000000000000000000000000000000000600082015250565b60006113f2600a836113ab565b91506113fd826113bc565b602082019050919050565b60006020820190508181036000830152611421816113e5565b9050919050565b7f4e487b7100000000000000000000000000000000000000000000000000000000600052601160045260246000fd5b600061146282611248565b915061146d83611248565b9250827fffffffffffffffffffffffffffffffffffffffffffffffffffffffffffffffff038211156114a2576114a1611428565b5b828201905092915050565b60006114b882611248565b91506114c383611248565b9250828210156114d6576114d5611428565b5b828203905092915050565b60006040820190506114f660008301856112ca565b6115036020830184611252565b9392505050565b61151381611212565b811461151e57600080fd5b50565b6000815190506115308161150a565b92915050565b60006020828403121561154c5761154b6112f4565b5b600061155a84828501611521565b91505092915050565b600060608201905061157860008301866112ca565b6115856020830185611252565b61159260408301846112ca565b949350505050565b60006115a582611248565b9150600082036115b8576115b7611428565b5b600182039050919050565b60006060820190506115d860008301866112ca565b6115e56020830185611252565b6115f26040830184611252565b949350505050565b60008151905061160981611352565b92915050565b600060208284031215611625576116246112f4565b5b6000611633848285016115fa565b91505092915050565b7f4e6f2072657761726420746f6b656e7320746f2072656465656d000000000000600082015250565b6000611672601a836113ab565b915061167d8261163c565b602082019050919050565b600060208201905081810360008301526116a181611665565b9050919050565b7f4465706f73697465642030206574686572730000000000000000000000000000600082015250565b60006116de6012836113ab565b91506116e9826116a8565b602082019050919050565b6000602082019050818103600083015261170d816116d1565b9050919050565b600061171f82611248565b91507fffffffffffffffffffffffffffffffffffffffffffffffffffffffffffffffff820361175157611750611428565b5b600182019050919050565b6000819050919050565b600061ffff82169050919050565b600061178f61178a6117858461175c565b611198565b611766565b9050919050565b61179f81611774565b82525050565b60006060820190506117ba60008301866112ca565b6117c760208301856112ca565b6117d46040830184611796565b949350505050565b7f4f776e61626c653a206e6577206f776e657220697320746865207a65726f206160008201527f6464726573730000000000000000000000000000000000000000000000000000602082015250565b60006118386026836113ab565b9150611843826117dc565b604082019050919050565b600060208201905081810360008301526118678161182b565b9050919050565b600061187982611248565b915061188483611248565b9250817fffffffffffffffffffffffffffffffffffffffffffffffffffffffffffffffff04831182151516156118bd576118bc611428565b5b828202905092915050565b7f4e487b7100000000000000000000000000000000000000000000000000000000600052601260045260246000fd5b600061190282611248565b915061190d83611248565b92508261191d5761191c6118c8565b5b828204905092915050565b7f4f776e61626c653a2063616c6c6572206973206e6f7420746865206f776e6572600082015250565b600061195e6020836113ab565b915061196982611928565b602082019050919050565b6000602082019050818103600083015261198d81611951565b905091905056fea26469706673582212207d369e0636dc37fe624385cd258c18dc5bfaa8bea3b15749ec005835177e2b4264736f6c634300080f0033",
  "linkReferences": {},
  "deployedLinkReferences": {}
}