{
  "_format": "hh-sol-artifact-1",
  "contractName": "StrongHands",
  "sourceName": "contracts/StrongHands.sol",
  "abi": [
    {
      "inputs": [
        {
          "internalType": "uint256",
          "name": "_timeframe",
          "type": "uint256"
        },
        {
          "internalType": "contract IWETHGateway",
          "name": "_gateway",
          "type": "address"
        },
        {
          "internalType": "contract IAToken",
          "name": "_aWETH",
          "type": "address"
        },
        {
          "internalType": "address",
          "name": "_lendingPoolAddress",
          "type": "address"
        }
      ],
      "stateMutability": "nonpayable",
      "type": "constructor"
    },
    {
      "anonymous": false,
      "inputs": [
        {
          "indexed": false,
          "internalType": "address",
          "name": "sender",
          "type": "address"
        },
        {
          "indexed": false,
          "internalType": "uint256",
          "name": "value",
          "type": "uint256"
        },
        {
          "indexed": false,
          "internalType": "uint256",
          "name": "lockedUntil",
          "type": "uint256"
        }
      ],
      "name": "Deposited",
      "type": "event"
    },
    {
      "anonymous": false,
      "inputs": [
        {
          "indexed": true,
          "internalType": "address",
          "name": "previousOwner",
          "type": "address"
        },
        {
          "indexed": true,
          "internalType": "address",
          "name": "newOwner",
          "type": "address"
        }
      ],
      "name": "OwnershipTransferred",
      "type": "event"
    },
    {
      "anonymous": false,
      "inputs": [
        {
          "indexed": false,
          "internalType": "address",
          "name": "sender",
          "type": "address"
        },
        {
          "indexed": false,
          "internalType": "uint256",
          "name": "value",
          "type": "uint256"
        },
        {
          "indexed": false,
          "internalType": "uint256",
          "name": "penalty",
          "type": "uint256"
        }
      ],
      "name": "Withdrew",
      "type": "event"
    },
    {
      "inputs": [],
      "name": "BASIS_POINT",
      "outputs": [
        {
          "internalType": "uint256",
          "name": "",
          "type": "uint256"
        }
      ],
      "stateMutability": "view",
      "type": "function"
    },
    {
      "inputs": [],
      "name": "aWETH",
      "outputs": [
        {
          "internalType": "contract IAToken",
          "name": "",
          "type": "address"
        }
      ],
      "stateMutability": "view",
      "type": "function"
    },
    {
      "inputs": [],
      "name": "deposit",
      "outputs": [],
      "stateMutability": "payable",
      "type": "function"
    },
    {
      "inputs": [
        {
          "internalType": "uint256",
          "name": "",
          "type": "uint256"
        }
      ],
      "name": "depositors",
      "outputs": [
        {
          "internalType": "address",
          "name": "",
          "type": "address"
        }
      ],
      "stateMutability": "view",
      "type": "function"
    },
    {
      "inputs": [
        {
          "internalType": "address",
          "name": "",
          "type": "address"
        }
      ],
      "name": "deposits",
      "outputs": [
        {
          "internalType": "uint256",
          "name": "",
          "type": "uint256"
        }
      ],
      "stateMutability": "view",
      "type": "function"
    },
    {
      "inputs": [],
      "name": "gateway",
      "outputs": [
        {
          "internalType": "contract IWETHGateway",
          "name": "",
          "type": "address"
        }
      ],
      "stateMutability": "view",
      "type": "function"
    },
    {
      "inputs": [],
      "name": "lendingPoolAddress",
      "outputs": [
        {
          "internalType": "address",
          "name": "",
          "type": "address"
        }
      ],
      "stateMutability": "view",
      "type": "function"
    },
    {
      "inputs": [
        {
          "internalType": "address",
          "name": "",
          "type": "address"
        }
      ],
      "name": "lockPeriods",
      "outputs": [
        {
          "internalType": "uint256",
          "name": "startTimestamp",
          "type": "uint256"
        },
        {
          "internalType": "uint256",
          "name": "endTimestamp",
          "type": "uint256"
        }
      ],
      "stateMutability": "view",
      "type": "function"
    },
    {
      "inputs": [],
      "name": "owner",
      "outputs": [
        {
          "internalType": "address",
          "name": "",
          "type": "address"
        }
      ],
      "stateMutability": "view",
      "type": "function"
    },
    {
      "inputs": [],
      "name": "penalties",
      "outputs": [
        {
          "internalType": "uint256",
          "name": "",
          "type": "uint256"
        }
      ],
      "stateMutability": "view",
      "type": "function"
    },
    {
      "inputs": [],
      "name": "redeem",
      "outputs": [
        {
          "internalType": "bool",
          "name": "",
          "type": "bool"
        }
      ],
      "stateMutability": "nonpayable",
      "type": "function"
    },
    {
      "inputs": [],
      "name": "renounceOwnership",
      "outputs": [],
      "stateMutability": "nonpayable",
      "type": "function"
    },
    {
      "inputs": [],
      "name": "timeframe",
      "outputs": [
        {
          "internalType": "uint256",
          "name": "",
          "type": "uint256"
        }
      ],
      "stateMutability": "view",
      "type": "function"
    },
    {
      "inputs": [],
      "name": "totalDeposit",
      "outputs": [
        {
          "internalType": "uint256",
          "name": "",
          "type": "uint256"
        }
      ],
      "stateMutability": "view",
      "type": "function"
    },
    {
      "inputs": [],
      "name": "totalDepositors",
      "outputs": [
        {
          "internalType": "uint256",
          "name": "",
          "type": "uint256"
        }
      ],
      "stateMutability": "view",
      "type": "function"
    },
    {
      "inputs": [
        {
          "internalType": "address",
          "name": "newOwner",
          "type": "address"
        }
      ],
      "name": "transferOwnership",
      "outputs": [],
      "stateMutability": "nonpayable",
      "type": "function"
    },
    {
      "inputs": [],
      "name": "withdraw",
      "outputs": [
        {
          "internalType": "bool",
          "name": "",
          "type": "bool"
        }
      ],
      "stateMutability": "nonpayable",
      "type": "function"
    },
    {
      "stateMutability": "payable",
      "type": "receive"
    }
  ],
  "bytecode": "0x6101006040523480156200001257600080fd5b5060405162001e3e38038062001e3e833981810160405281019062000038919062000301565b620000586200004c6200010660201b60201c565b6200010e60201b60201c565b83608081815250508273ffffffffffffffffffffffffffffffffffffffff1660a08173ffffffffffffffffffffffffffffffffffffffff16815250508173ffffffffffffffffffffffffffffffffffffffff1660c08173ffffffffffffffffffffffffffffffffffffffff16815250508073ffffffffffffffffffffffffffffffffffffffff1660e08173ffffffffffffffffffffffffffffffffffffffff16815250505050505062000373565b600033905090565b60008060009054906101000a900473ffffffffffffffffffffffffffffffffffffffff169050816000806101000a81548173ffffffffffffffffffffffffffffffffffffffff021916908373ffffffffffffffffffffffffffffffffffffffff1602179055508173ffffffffffffffffffffffffffffffffffffffff168173ffffffffffffffffffffffffffffffffffffffff167f8be0079c531659141344cd1fd0a4f28419497f9722a3daafe3b4186f6b6457e060405160405180910390a35050565b600080fd5b6000819050919050565b620001ec81620001d7565b8114620001f857600080fd5b50565b6000815190506200020c81620001e1565b92915050565b600073ffffffffffffffffffffffffffffffffffffffff82169050919050565b60006200023f8262000212565b9050919050565b6000620002538262000232565b9050919050565b620002658162000246565b81146200027157600080fd5b50565b60008151905062000285816200025a565b92915050565b6000620002988262000232565b9050919050565b620002aa816200028b565b8114620002b657600080fd5b50565b600081519050620002ca816200029f565b92915050565b620002db8162000232565b8114620002e757600080fd5b50565b600081519050620002fb81620002d0565b92915050565b600080600080608085870312156200031e576200031d620001d2565b5b60006200032e87828801620001fb565b9450506020620003418782880162000274565b93505060406200035487828801620002b9565b92505060606200036787828801620002ea565b91505092959194509250565b60805160a05160c05160e051611a44620003fa6000396000818161071001528181610cb20152610eaa015260008181610615015281816108910152818161092701528181610a180152610aa30152600081816103eb01528181610651015281816106d40152610c750152600081816108f701528181610da601526111630152611a446000f3fe6080604052600436106101025760003560e01c8063ba59b66f11610095578063d3ae26b311610064578063d3ae26b3146102f0578063e4b2fb791461031b578063f2fde38b14610358578063f6153ccd14610381578063fc7e286d146103ac57610109565b8063ba59b66f14610252578063be040fb01461027d578063cc028993146102a8578063d0e30db0146102e657610109565b80636d2a583a116100d15780636d2a583a146101ba578063715018a6146101e55780638da5cb5b146101fc578063ada5f6421461022757610109565b8063116191b61461010e5780633ccfd60b14610139578063418f31281461016457806342b53a751461018f57610109565b3661010957005b600080fd5b34801561011a57600080fd5b506101236103e9565b6040516101309190611248565b60405180910390f35b34801561014557600080fd5b5061014e61040d565b60405161015b919061127e565b60405180910390f35b34801561017057600080fd5b50610179610883565b60405161018691906112b2565b60405180910390f35b34801561019b57600080fd5b506101a4610889565b6040516101b191906112b2565b60405180910390f35b3480156101c657600080fd5b506101cf61088f565b6040516101dc91906112ee565b60405180910390f35b3480156101f157600080fd5b506101fa6108b3565b005b34801561020857600080fd5b506102116108c7565b60405161021e919061132a565b60405180910390f35b34801561023357600080fd5b5061023c6108f0565b60405161024991906112b2565b60405180910390f35b34801561025e57600080fd5b506102676108f5565b60405161027491906112b2565b60405180910390f35b34801561028957600080fd5b50610292610919565b60405161029f919061127e565b60405180910390f35b3480156102b457600080fd5b506102cf60048036038101906102ca9190611376565b610b49565b6040516102dd9291906113a3565b60405180910390f35b6102ee610b6d565b005b3480156102fc57600080fd5b50610305610ea8565b604051610312919061132a565b60405180910390f35b34801561032757600080fd5b50610342600480360381019061033d91906113f8565b610ecc565b60405161034f919061132a565b60405180910390f35b34801561036457600080fd5b5061037f600480360381019061037a9190611376565b610f0b565b005b34801561038d57600080fd5b50610396610f8e565b6040516103a391906112b2565b60405180910390f35b3480156103b857600080fd5b506103d360048036038101906103ce9190611376565b610f94565b6040516103e091906112b2565b60405180910390f35b7f000000000000000000000000000000000000000000000000000000000000000081565b600080600460003373ffffffffffffffffffffffffffffffffffffffff1673ffffffffffffffffffffffffffffffffffffffff1681526020019081526020016000205411610490576040517f08c379a000000000000000000000000000000000000000000000000000000000815260040161048790611482565b60405180910390fd5b6000600460003373ffffffffffffffffffffffffffffffffffffffff1673ffffffffffffffffffffffffffffffffffffffff168152602001908152602001600020549050600080600560003373ffffffffffffffffffffffffffffffffffffffff1673ffffffffffffffffffffffffffffffffffffffff1681526020019081526020016000206001015442111561059d57600061056e600460003373ffffffffffffffffffffffffffffffffffffffff1673ffffffffffffffffffffffffffffffffffffffff16815260200190815260200160002054600254610fac565b9050806002600082825461058291906114d1565b9250508190555080846105959190611505565b915050610613565b6105e983600560003373ffffffffffffffffffffffffffffffffffffffff1673ffffffffffffffffffffffffffffffffffffffff16815260200190815260200160002060000154610fec565b915081600260008282546105fd9190611505565b92505081905550818361061091906114d1565b90505b7f000000000000000000000000000000000000000000000000000000000000000073ffffffffffffffffffffffffffffffffffffffff1663095ea7b37f0000000000000000000000000000000000000000000000000000000000000000836040518363ffffffff1660e01b815260040161068e92919061155b565b6020604051808303816000875af11580156106ad573d6000803e3d6000fd5b505050506040513d601f19601f820116820180604052508101906106d191906115b0565b507f000000000000000000000000000000000000000000000000000000000000000073ffffffffffffffffffffffffffffffffffffffff166380500d207f000000000000000000000000000000000000000000000000000000000000000083306040518463ffffffff1660e01b815260040161074f939291906115dd565b600060405180830381600087803b15801561076957600080fd5b505af115801561077d573d6000803e3d6000fd5b505050506003600081548092919061079490611614565b91905055506000600460003373ffffffffffffffffffffffffffffffffffffffff1673ffffffffffffffffffffffffffffffffffffffff1681526020019081526020016000208190555082600160008282546107f091906114d1565b925050819055503373ffffffffffffffffffffffffffffffffffffffff166108fc829081150290604051600060405180830381858888f1935050505015801561083d573d6000803e3d6000fd5b507fadec52fcd1408589179b85e44b434374db078b4eaf793e7d1a1bb0ae4ecfeee53382846040516108719392919061163d565b60405180910390a16001935050505090565b60035481565b60025481565b7f000000000000000000000000000000000000000000000000000000000000000081565b6108bb61101b565b6108c56000611099565b565b60008060009054906101000a900473ffffffffffffffffffffffffffffffffffffffff16905090565b606481565b7f000000000000000000000000000000000000000000000000000000000000000081565b600061092361101b565b60007f000000000000000000000000000000000000000000000000000000000000000073ffffffffffffffffffffffffffffffffffffffff166370a08231306040518263ffffffff1660e01b815260040161097e919061132a565b602060405180830381865afa15801561099b573d6000803e3d6000fd5b505050506040513d601f19601f820116820180604052508101906109bf9190611689565b90506000600154826109d191906114d1565b905060008111610a16576040517f08c379a0000000000000000000000000000000000000000000000000000000008152600401610a0d90611702565b60405180910390fd5b7f000000000000000000000000000000000000000000000000000000000000000073ffffffffffffffffffffffffffffffffffffffff1663db006a75826040518263ffffffff1660e01b8152600401610a6f91906112b2565b600060405180830381600087803b158015610a8957600080fd5b505af1158015610a9d573d6000803e3d6000fd5b505050507f000000000000000000000000000000000000000000000000000000000000000073ffffffffffffffffffffffffffffffffffffffff1663a9059cbb33836040518363ffffffff1660e01b8152600401610afc92919061155b565b6020604051808303816000875af1158015610b1b573d6000803e3d6000fd5b505050506040513d601f19601f82011682018060405250810190610b3f91906115b0565b5060019250505090565b60056020528060005260406000206000915090508060000154908060010154905082565b60003411610bb0576040517f08c379a0000000000000000000000000000000000000000000000000000000008152600401610ba79061176e565b60405180910390fd5b6000600460003373ffffffffffffffffffffffffffffffffffffffff1673ffffffffffffffffffffffffffffffffffffffff1681526020019081526020016000205403610c735760036000815480929190610c0a9061178e565b91905055506006339080600181540180825580915050600190039060005260206000200160009091909190916101000a81548173ffffffffffffffffffffffffffffffffffffffff021916908373ffffffffffffffffffffffffffffffffffffffff1602179055505b7f000000000000000000000000000000000000000000000000000000000000000073ffffffffffffffffffffffffffffffffffffffff1663474cf53d347f00000000000000000000000000000000000000000000000000000000000000003060006040518563ffffffff1660e01b8152600401610cf29392919061181f565b6000604051808303818588803b158015610d0b57600080fd5b505af1158015610d1f573d6000803e3d6000fd5b50505050503460016000828254610d369190611505565b9250508190555034600460003373ffffffffffffffffffffffffffffffffffffffff1673ffffffffffffffffffffffffffffffffffffffff1681526020019081526020016000206000828254610d8c9190611505565b9250508190555060405180604001604052804281526020017f000000000000000000000000000000000000000000000000000000000000000042610dd09190611505565b815250600560003373ffffffffffffffffffffffffffffffffffffffff1673ffffffffffffffffffffffffffffffffffffffff16815260200190815260200160002060008201518160000155602082015181600101559050507f73a19dd210f1a7f902193214c0ee91dd35ee5b4d920cba8d519eca65a7b488ca3334600560003373ffffffffffffffffffffffffffffffffffffffff1673ffffffffffffffffffffffffffffffffffffffff16815260200190815260200160002060010154604051610e9e9392919061163d565b60405180910390a1565b7f000000000000000000000000000000000000000000000000000000000000000081565b60068181548110610edc57600080fd5b906000526020600020016000915054906101000a900473ffffffffffffffffffffffffffffffffffffffff1681565b610f1361101b565b600073ffffffffffffffffffffffffffffffffffffffff168173ffffffffffffffffffffffffffffffffffffffff1603610f82576040517f08c379a0000000000000000000000000000000000000000000000000000000008152600401610f79906118c8565b60405180910390fd5b610f8b81611099565b50565b60015481565b60046020528060005260406000206000915090505481565b600080600154606485610fbf91906118e8565b610fc99190611971565b905060648184610fd991906118e8565b610fe39190611971565b91505092915050565b600080610ff88361115d565b90506064818561100891906118e8565b6110129190611971565b91505092915050565b6110236111c1565b73ffffffffffffffffffffffffffffffffffffffff166110416108c7565b73ffffffffffffffffffffffffffffffffffffffff1614611097576040517f08c379a000000000000000000000000000000000000000000000000000000000815260040161108e906119ee565b60405180910390fd5b565b60008060009054906101000a900473ffffffffffffffffffffffffffffffffffffffff169050816000806101000a81548173ffffffffffffffffffffffffffffffffffffffff021916908373ffffffffffffffffffffffffffffffffffffffff1602179055508173ffffffffffffffffffffffffffffffffffffffff168173ffffffffffffffffffffffffffffffffffffffff167f8be0079c531659141344cd1fd0a4f28419497f9722a3daafe3b4186f6b6457e060405160405180910390a35050565b600060027f00000000000000000000000000000000000000000000000000000000000000006064844261119091906114d1565b61119a91906118e8565b6111a49190611971565b60646111b091906114d1565b6111ba9190611971565b9050919050565b600033905090565b600073ffffffffffffffffffffffffffffffffffffffff82169050919050565b6000819050919050565b600061120e611209611204846111c9565b6111e9565b6111c9565b9050919050565b6000611220826111f3565b9050919050565b600061123282611215565b9050919050565b61124281611227565b82525050565b600060208201905061125d6000830184611239565b92915050565b60008115159050919050565b61127881611263565b82525050565b6000602082019050611293600083018461126f565b92915050565b6000819050919050565b6112ac81611299565b82525050565b60006020820190506112c760008301846112a3565b92915050565b60006112d882611215565b9050919050565b6112e8816112cd565b82525050565b600060208201905061130360008301846112df565b92915050565b6000611314826111c9565b9050919050565b61132481611309565b82525050565b600060208201905061133f600083018461131b565b92915050565b600080fd5b61135381611309565b811461135e57600080fd5b50565b6000813590506113708161134a565b92915050565b60006020828403121561138c5761138b611345565b5b600061139a84828501611361565b91505092915050565b60006040820190506113b860008301856112a3565b6113c560208301846112a3565b9392505050565b6113d581611299565b81146113e057600080fd5b50565b6000813590506113f2816113cc565b92915050565b60006020828403121561140e5761140d611345565b5b600061141c848285016113e3565b91505092915050565b600082825260208201905092915050565b7f4e6f206465706f73697400000000000000000000000000000000000000000000600082015250565b600061146c600a83611425565b915061147782611436565b602082019050919050565b6000602082019050818103600083015261149b8161145f565b9050919050565b7f4e487b7100000000000000000000000000000000000000000000000000000000600052601160045260246000fd5b60006114dc82611299565b91506114e783611299565b9250828210156114fa576114f96114a2565b5b828203905092915050565b600061151082611299565b915061151b83611299565b9250827fffffffffffffffffffffffffffffffffffffffffffffffffffffffffffffffff038211156115505761154f6114a2565b5b828201905092915050565b6000604082019050611570600083018561131b565b61157d60208301846112a3565b9392505050565b61158d81611263565b811461159857600080fd5b50565b6000815190506115aa81611584565b92915050565b6000602082840312156115c6576115c5611345565b5b60006115d48482850161159b565b91505092915050565b60006060820190506115f2600083018661131b565b6115ff60208301856112a3565b61160c604083018461131b565b949350505050565b600061161f82611299565b915060008203611632576116316114a2565b5b600182039050919050565b6000606082019050611652600083018661131b565b61165f60208301856112a3565b61166c60408301846112a3565b949350505050565b600081519050611683816113cc565b92915050565b60006020828403121561169f5761169e611345565b5b60006116ad84828501611674565b91505092915050565b7f4e6f2072657761726420746f6b656e7320746f2072656465656d000000000000600082015250565b60006116ec601a83611425565b91506116f7826116b6565b602082019050919050565b6000602082019050818103600083015261171b816116df565b9050919050565b7f4465706f73697465642030206574686572730000000000000000000000000000600082015250565b6000611758601283611425565b915061176382611722565b602082019050919050565b600060208201905081810360008301526117878161174b565b9050919050565b600061179982611299565b91507fffffffffffffffffffffffffffffffffffffffffffffffffffffffffffffffff82036117cb576117ca6114a2565b5b600182019050919050565b6000819050919050565b600061ffff82169050919050565b60006118096118046117ff846117d6565b6111e9565b6117e0565b9050919050565b611819816117ee565b82525050565b6000606082019050611834600083018661131b565b611841602083018561131b565b61184e6040830184611810565b949350505050565b7f4f776e61626c653a206e6577206f776e657220697320746865207a65726f206160008201527f6464726573730000000000000000000000000000000000000000000000000000602082015250565b60006118b2602683611425565b91506118bd82611856565b604082019050919050565b600060208201905081810360008301526118e1816118a5565b9050919050565b60006118f382611299565b91506118fe83611299565b9250817fffffffffffffffffffffffffffffffffffffffffffffffffffffffffffffffff0483118215151615611937576119366114a2565b5b828202905092915050565b7f4e487b7100000000000000000000000000000000000000000000000000000000600052601260045260246000fd5b600061197c82611299565b915061198783611299565b92508261199757611996611942565b5b828204905092915050565b7f4f776e61626c653a2063616c6c6572206973206e6f7420746865206f776e6572600082015250565b60006119d8602083611425565b91506119e3826119a2565b602082019050919050565b60006020820190508181036000830152611a07816119cb565b905091905056fea26469706673582212206475f36e7f69b43dc8068b0aa18a228dbf6ae2ce332b5ca33775ce7aa765f26464736f6c634300080f0033",
  "linkReferences": {},
  "deployedLinkReferences": {}
}