{
  "contracts/StrongHands.sol": {
    "StrongHands": {
      "abi": [
        {
          "inputs": [
            {
              "internalType": "uint256",
              "name": "_timeframe",
              "type": "uint256"
            },
            {
              "internalType": "contract IWETHGateway",
              "name": "_gateway",
              "type": "address"
            },
            {
              "internalType": "contract IAToken",
              "name": "_aWETH",
              "type": "address"
            },
            {
              "internalType": "address",
              "name": "_lendingPoolAddress",
              "type": "address"
            }
          ],
          "stateMutability": "nonpayable",
          "type": "constructor"
        },
        {
          "anonymous": false,
          "inputs": [
            {
              "indexed": false,
              "internalType": "address",
              "name": "sender",
              "type": "address"
            },
            {
              "indexed": false,
              "internalType": "uint256",
              "name": "value",
              "type": "uint256"
            },
            {
              "indexed": false,
              "internalType": "uint256",
              "name": "lockedUntil",
              "type": "uint256"
            }
          ],
          "name": "Deposited",
          "type": "event"
        },
        {
          "anonymous": false,
          "inputs": [
            {
              "indexed": true,
              "internalType": "address",
              "name": "previousOwner",
              "type": "address"
            },
            {
              "indexed": true,
              "internalType": "address",
              "name": "newOwner",
              "type": "address"
            }
          ],
          "name": "OwnershipTransferred",
          "type": "event"
        },
        {
          "anonymous": false,
          "inputs": [
            {
              "indexed": false,
              "internalType": "address",
              "name": "sender",
              "type": "address"
            },
            {
              "indexed": false,
              "internalType": "uint256",
              "name": "value",
              "type": "uint256"
            },
            {
              "indexed": false,
              "internalType": "uint256",
              "name": "penalty",
              "type": "uint256"
            }
          ],
          "name": "Withdrew",
          "type": "event"
        },
        {
          "inputs": [],
          "name": "BASIS_POINT",
          "outputs": [
            {
              "internalType": "uint256",
              "name": "",
              "type": "uint256"
            }
          ],
          "stateMutability": "view",
          "type": "function"
        },
        {
          "inputs": [],
          "name": "aWETH",
          "outputs": [
            {
              "internalType": "contract IAToken",
              "name": "",
              "type": "address"
            }
          ],
          "stateMutability": "view",
          "type": "function"
        },
        {
          "inputs": [],
          "name": "deposit",
          "outputs": [],
          "stateMutability": "payable",
          "type": "function"
        },
        {
          "inputs": [
            {
              "internalType": "uint256",
              "name": "",
              "type": "uint256"
            }
          ],
          "name": "depositors",
          "outputs": [
            {
              "internalType": "address",
              "name": "",
              "type": "address"
            }
          ],
          "stateMutability": "view",
          "type": "function"
        },
        {
          "inputs": [
            {
              "internalType": "address",
              "name": "",
              "type": "address"
            }
          ],
          "name": "deposits",
          "outputs": [
            {
              "internalType": "uint256",
              "name": "",
              "type": "uint256"
            }
          ],
          "stateMutability": "view",
          "type": "function"
        },
        {
          "inputs": [],
          "name": "gateway",
          "outputs": [
            {
              "internalType": "contract IWETHGateway",
              "name": "",
              "type": "address"
            }
          ],
          "stateMutability": "view",
          "type": "function"
        },
        {
          "inputs": [],
          "name": "lendingPoolAddress",
          "outputs": [
            {
              "internalType": "address",
              "name": "",
              "type": "address"
            }
          ],
          "stateMutability": "view",
          "type": "function"
        },
        {
          "inputs": [
            {
              "internalType": "address",
              "name": "",
              "type": "address"
            }
          ],
          "name": "lockPeriods",
          "outputs": [
            {
              "internalType": "uint256",
              "name": "",
              "type": "uint256"
            }
          ],
          "stateMutability": "view",
          "type": "function"
        },
        {
          "inputs": [],
          "name": "owner",
          "outputs": [
            {
              "internalType": "address",
              "name": "",
              "type": "address"
            }
          ],
          "stateMutability": "view",
          "type": "function"
        },
        {
          "inputs": [],
          "name": "penalties",
          "outputs": [
            {
              "internalType": "uint256",
              "name": "",
              "type": "uint256"
            }
          ],
          "stateMutability": "view",
          "type": "function"
        },
        {
          "inputs": [],
          "name": "redeem",
          "outputs": [
            {
              "internalType": "bool",
              "name": "",
              "type": "bool"
            }
          ],
          "stateMutability": "nonpayable",
          "type": "function"
        },
        {
          "inputs": [],
          "name": "renounceOwnership",
          "outputs": [],
          "stateMutability": "nonpayable",
          "type": "function"
        },
        {
          "inputs": [],
          "name": "timeframe",
          "outputs": [
            {
              "internalType": "uint256",
              "name": "",
              "type": "uint256"
            }
          ],
          "stateMutability": "view",
          "type": "function"
        },
        {
          "inputs": [],
          "name": "totalDeposit",
          "outputs": [
            {
              "internalType": "uint256",
              "name": "",
              "type": "uint256"
            }
          ],
          "stateMutability": "view",
          "type": "function"
        },
        {
          "inputs": [],
          "name": "totalDepositors",
          "outputs": [
            {
              "internalType": "uint256",
              "name": "",
              "type": "uint256"
            }
          ],
          "stateMutability": "view",
          "type": "function"
        },
        {
          "inputs": [
            {
              "internalType": "address",
              "name": "newOwner",
              "type": "address"
            }
          ],
          "name": "transferOwnership",
          "outputs": [],
          "stateMutability": "nonpayable",
          "type": "function"
        },
        {
          "inputs": [],
          "name": "withdraw",
          "outputs": [
            {
              "internalType": "bool",
              "name": "",
              "type": "bool"
            }
          ],
          "stateMutability": "nonpayable",
          "type": "function"
        },
        {
          "stateMutability": "payable",
          "type": "receive"
        }
      ],
      "devdoc": {
        "kind": "dev",
        "methods": {
          "owner()": {
            "details": "Returns the address of the current owner."
          },
          "renounceOwnership()": {
            "details": "Leaves the contract without owner. It will not be possible to call `onlyOwner` functions anymore. Can only be called by the current owner. NOTE: Renouncing ownership will leave the contract without an owner, thereby removing any functionality that is only available to the owner."
          },
          "transferOwnership(address)": {
            "details": "Transfers ownership of the contract to a new account (`newOwner`). Can only be called by the current owner."
          }
        },
        "version": 1
      },
      "evm": {
        "bytecode": {
          "linkReferences": {},
          "object": "6101006040523480156200001257600080fd5b5060405162001dcb38038062001dcb833981810160405281019062000038919062000301565b620000586200004c6200010660201b60201c565b6200010e60201b60201c565b83608081815250508273ffffffffffffffffffffffffffffffffffffffff1660a08173ffffffffffffffffffffffffffffffffffffffff16815250508173ffffffffffffffffffffffffffffffffffffffff1660c08173ffffffffffffffffffffffffffffffffffffffff16815250508073ffffffffffffffffffffffffffffffffffffffff1660e08173ffffffffffffffffffffffffffffffffffffffff16815250505050505062000373565b600033905090565b60008060009054906101000a900473ffffffffffffffffffffffffffffffffffffffff169050816000806101000a81548173ffffffffffffffffffffffffffffffffffffffff021916908373ffffffffffffffffffffffffffffffffffffffff1602179055508173ffffffffffffffffffffffffffffffffffffffff168173ffffffffffffffffffffffffffffffffffffffff167f8be0079c531659141344cd1fd0a4f28419497f9722a3daafe3b4186f6b6457e060405160405180910390a35050565b600080fd5b6000819050919050565b620001ec81620001d7565b8114620001f857600080fd5b50565b6000815190506200020c81620001e1565b92915050565b600073ffffffffffffffffffffffffffffffffffffffff82169050919050565b60006200023f8262000212565b9050919050565b6000620002538262000232565b9050919050565b620002658162000246565b81146200027157600080fd5b50565b60008151905062000285816200025a565b92915050565b6000620002988262000232565b9050919050565b620002aa816200028b565b8114620002b657600080fd5b50565b600081519050620002ca816200029f565b92915050565b620002db8162000232565b8114620002e757600080fd5b50565b600081519050620002fb81620002d0565b92915050565b600080600080608085870312156200031e576200031d620001d2565b5b60006200032e87828801620001fb565b9450506020620003418782880162000274565b93505060406200035487828801620002b9565b92505060606200036787828801620002ea565b91505092959194509250565b60805160a05160c05160e0516119ca620004016000396000818161073401528181610cca0152610e59015260008181610639015281816108b50152818161094b01528181610a3c0152610ac70152600081816103ea01528181610675015281816106f80152610c8d0152600081816104d80152818161091b01528181610e14015261111201526119ca6000f3fe6080604052600436106101025760003560e01c8063ba59b66f11610095578063d3ae26b311610064578063d3ae26b3146102ef578063e4b2fb791461031a578063f2fde38b14610357578063f6153ccd14610380578063fc7e286d146103ab57610109565b8063ba59b66f14610252578063be040fb01461027d578063cc028993146102a8578063d0e30db0146102e557610109565b80636d2a583a116100d15780636d2a583a146101ba578063715018a6146101e55780638da5cb5b146101fc578063ada5f6421461022757610109565b8063116191b61461010e5780633ccfd60b14610139578063418f31281461016457806342b53a751461018f57610109565b3661010957005b600080fd5b34801561011a57600080fd5b506101236103e8565b60405161013091906111f7565b60405180910390f35b34801561014557600080fd5b5061014e61040c565b60405161015b919061122d565b60405180910390f35b34801561017057600080fd5b506101796108a7565b6040516101869190611261565b60405180910390f35b34801561019b57600080fd5b506101a46108ad565b6040516101b19190611261565b60405180910390f35b3480156101c657600080fd5b506101cf6108b3565b6040516101dc919061129d565b60405180910390f35b3480156101f157600080fd5b506101fa6108d7565b005b34801561020857600080fd5b506102116108eb565b60405161021e91906112d9565b60405180910390f35b34801561023357600080fd5b5061023c610914565b6040516102499190611261565b60405180910390f35b34801561025e57600080fd5b50610267610919565b6040516102749190611261565b60405180910390f35b34801561028957600080fd5b5061029261093d565b60405161029f919061122d565b60405180910390f35b3480156102b457600080fd5b506102cf60048036038101906102ca9190611325565b610b6d565b6040516102dc9190611261565b60405180910390f35b6102ed610b85565b005b3480156102fb57600080fd5b50610304610e57565b60405161031191906112d9565b60405180910390f35b34801561032657600080fd5b50610341600480360381019061033c919061137e565b610e7b565b60405161034e91906112d9565b60405180910390f35b34801561036357600080fd5b5061037e60048036038101906103799190611325565b610eba565b005b34801561038c57600080fd5b50610395610f3d565b6040516103a29190611261565b60405180910390f35b3480156103b757600080fd5b506103d260048036038101906103cd9190611325565b610f43565b6040516103df9190611261565b60405180910390f35b7f000000000000000000000000000000000000000000000000000000000000000081565b600080600460003373ffffffffffffffffffffffffffffffffffffffff1673ffffffffffffffffffffffffffffffffffffffff168152602001908152602001600020541161048f576040517f08c379a000000000000000000000000000000000000000000000000000000000815260040161048690611408565b60405180910390fd5b6000600460003373ffffffffffffffffffffffffffffffffffffffff1673ffffffffffffffffffffffffffffffffffffffff1681526020019081526020016000205490506000807f0000000000000000000000000000000000000000000000000000000000000000600560003373ffffffffffffffffffffffffffffffffffffffff1673ffffffffffffffffffffffffffffffffffffffff168152602001908152602001600020546105419190611457565b4211156105c4576000610595600460003373ffffffffffffffffffffffffffffffffffffffff1673ffffffffffffffffffffffffffffffffffffffff16815260200190815260200160002054600254610f5b565b905080600260008282546105a991906114ad565b9250508190555080846105bc9190611457565b915050610637565b61060d83600560003373ffffffffffffffffffffffffffffffffffffffff1673ffffffffffffffffffffffffffffffffffffffff16815260200190815260200160002054610f9b565b915081600260008282546106219190611457565b92505081905550818361063491906114ad565b90505b7f000000000000000000000000000000000000000000000000000000000000000073ffffffffffffffffffffffffffffffffffffffff1663095ea7b37f0000000000000000000000000000000000000000000000000000000000000000836040518363ffffffff1660e01b81526004016106b29291906114e1565b6020604051808303816000875af11580156106d1573d6000803e3d6000fd5b505050506040513d601f19601f820116820180604052508101906106f59190611536565b507f000000000000000000000000000000000000000000000000000000000000000073ffffffffffffffffffffffffffffffffffffffff166380500d207f000000000000000000000000000000000000000000000000000000000000000083306040518463ffffffff1660e01b815260040161077393929190611563565b600060405180830381600087803b15801561078d57600080fd5b505af11580156107a1573d6000803e3d6000fd5b50505050600360008154809291906107b89061159a565b91905055506000600460003373ffffffffffffffffffffffffffffffffffffffff1673ffffffffffffffffffffffffffffffffffffffff16815260200190815260200160002081905550826001600082825461081491906114ad565b925050819055503373ffffffffffffffffffffffffffffffffffffffff166108fc829081150290604051600060405180830381858888f19350505050158015610861573d6000803e3d6000fd5b507fadec52fcd1408589179b85e44b434374db078b4eaf793e7d1a1bb0ae4ecfeee5338284604051610895939291906115c3565b60405180910390a16001935050505090565b60035481565b60025481565b7f000000000000000000000000000000000000000000000000000000000000000081565b6108df610fca565b6108e96000611048565b565b60008060009054906101000a900473ffffffffffffffffffffffffffffffffffffffff16905090565b606481565b7f000000000000000000000000000000000000000000000000000000000000000081565b6000610947610fca565b60007f000000000000000000000000000000000000000000000000000000000000000073ffffffffffffffffffffffffffffffffffffffff166370a08231306040518263ffffffff1660e01b81526004016109a291906112d9565b602060405180830381865afa1580156109bf573d6000803e3d6000fd5b505050506040513d601f19601f820116820180604052508101906109e3919061160f565b90506000600154826109f591906114ad565b905060008111610a3a576040517f08c379a0000000000000000000000000000000000000000000000000000000008152600401610a3190611688565b60405180910390fd5b7f000000000000000000000000000000000000000000000000000000000000000073ffffffffffffffffffffffffffffffffffffffff1663db006a75826040518263ffffffff1660e01b8152600401610a939190611261565b600060405180830381600087803b158015610aad57600080fd5b505af1158015610ac1573d6000803e3d6000fd5b505050507f000000000000000000000000000000000000000000000000000000000000000073ffffffffffffffffffffffffffffffffffffffff1663a9059cbb33836040518363ffffffff1660e01b8152600401610b209291906114e1565b6020604051808303816000875af1158015610b3f573d6000803e3d6000fd5b505050506040513d601f19601f82011682018060405250810190610b639190611536565b5060019250505090565b60056020528060005260406000206000915090505481565b60003411610bc8576040517f08c379a0000000000000000000000000000000000000000000000000000000008152600401610bbf906116f4565b60405180910390fd5b6000600460003373ffffffffffffffffffffffffffffffffffffffff1673ffffffffffffffffffffffffffffffffffffffff1681526020019081526020016000205403610c8b5760036000815480929190610c2290611714565b91905055506006339080600181540180825580915050600190039060005260206000200160009091909190916101000a81548173ffffffffffffffffffffffffffffffffffffffff021916908373ffffffffffffffffffffffffffffffffffffffff1602179055505b7f000000000000000000000000000000000000000000000000000000000000000073ffffffffffffffffffffffffffffffffffffffff1663474cf53d347f00000000000000000000000000000000000000000000000000000000000000003060006040518563ffffffff1660e01b8152600401610d0a939291906117a5565b6000604051808303818588803b158015610d2357600080fd5b505af1158015610d37573d6000803e3d6000fd5b50505050503460016000828254610d4e9190611457565b9250508190555034600460003373ffffffffffffffffffffffffffffffffffffffff1673ffffffffffffffffffffffffffffffffffffffff1681526020019081526020016000206000828254610da49190611457565b9250508190555042600560003373ffffffffffffffffffffffffffffffffffffffff1673ffffffffffffffffffffffffffffffffffffffff168152602001908152602001600020819055507f73a19dd210f1a7f902193214c0ee91dd35ee5b4d920cba8d519eca65a7b488ca33347f000000000000000000000000000000000000000000000000000000000000000042610e3e9190611457565b604051610e4d939291906115c3565b60405180910390a1565b7f000000000000000000000000000000000000000000000000000000000000000081565b60068181548110610e8b57600080fd5b906000526020600020016000915054906101000a900473ffffffffffffffffffffffffffffffffffffffff1681565b610ec2610fca565b600073ffffffffffffffffffffffffffffffffffffffff168173ffffffffffffffffffffffffffffffffffffffff1603610f31576040517f08c379a0000000000000000000000000000000000000000000000000000000008152600401610f289061184e565b60405180910390fd5b610f3a81611048565b50565b60015481565b60046020528060005260406000206000915090505481565b600080600154606485610f6e919061186e565b610f7891906118f7565b905060648184610f88919061186e565b610f9291906118f7565b91505092915050565b600080610fa78361110c565b905060648185610fb7919061186e565b610fc191906118f7565b91505092915050565b610fd2611170565b73ffffffffffffffffffffffffffffffffffffffff16610ff06108eb565b73ffffffffffffffffffffffffffffffffffffffff1614611046576040517f08c379a000000000000000000000000000000000000000000000000000000000815260040161103d90611974565b60405180910390fd5b565b60008060009054906101000a900473ffffffffffffffffffffffffffffffffffffffff169050816000806101000a81548173ffffffffffffffffffffffffffffffffffffffff021916908373ffffffffffffffffffffffffffffffffffffffff1602179055508173ffffffffffffffffffffffffffffffffffffffff168173ffffffffffffffffffffffffffffffffffffffff167f8be0079c531659141344cd1fd0a4f28419497f9722a3daafe3b4186f6b6457e060405160405180910390a35050565b600060027f00000000000000000000000000000000000000000000000000000000000000006064844261113f91906114ad565b611149919061186e565b61115391906118f7565b606461115f91906114ad565b61116991906118f7565b9050919050565b600033905090565b600073ffffffffffffffffffffffffffffffffffffffff82169050919050565b6000819050919050565b60006111bd6111b86111b384611178565b611198565b611178565b9050919050565b60006111cf826111a2565b9050919050565b60006111e1826111c4565b9050919050565b6111f1816111d6565b82525050565b600060208201905061120c60008301846111e8565b92915050565b60008115159050919050565b61122781611212565b82525050565b6000602082019050611242600083018461121e565b92915050565b6000819050919050565b61125b81611248565b82525050565b60006020820190506112766000830184611252565b92915050565b6000611287826111c4565b9050919050565b6112978161127c565b82525050565b60006020820190506112b2600083018461128e565b92915050565b60006112c382611178565b9050919050565b6112d3816112b8565b82525050565b60006020820190506112ee60008301846112ca565b92915050565b600080fd5b611302816112b8565b811461130d57600080fd5b50565b60008135905061131f816112f9565b92915050565b60006020828403121561133b5761133a6112f4565b5b600061134984828501611310565b91505092915050565b61135b81611248565b811461136657600080fd5b50565b60008135905061137881611352565b92915050565b600060208284031215611394576113936112f4565b5b60006113a284828501611369565b91505092915050565b600082825260208201905092915050565b7f4e6f206465706f73697400000000000000000000000000000000000000000000600082015250565b60006113f2600a836113ab565b91506113fd826113bc565b602082019050919050565b60006020820190508181036000830152611421816113e5565b9050919050565b7f4e487b7100000000000000000000000000000000000000000000000000000000600052601160045260246000fd5b600061146282611248565b915061146d83611248565b9250827fffffffffffffffffffffffffffffffffffffffffffffffffffffffffffffffff038211156114a2576114a1611428565b5b828201905092915050565b60006114b882611248565b91506114c383611248565b9250828210156114d6576114d5611428565b5b828203905092915050565b60006040820190506114f660008301856112ca565b6115036020830184611252565b9392505050565b61151381611212565b811461151e57600080fd5b50565b6000815190506115308161150a565b92915050565b60006020828403121561154c5761154b6112f4565b5b600061155a84828501611521565b91505092915050565b600060608201905061157860008301866112ca565b6115856020830185611252565b61159260408301846112ca565b949350505050565b60006115a582611248565b9150600082036115b8576115b7611428565b5b600182039050919050565b60006060820190506115d860008301866112ca565b6115e56020830185611252565b6115f26040830184611252565b949350505050565b60008151905061160981611352565b92915050565b600060208284031215611625576116246112f4565b5b6000611633848285016115fa565b91505092915050565b7f4e6f2072657761726420746f6b656e7320746f2072656465656d000000000000600082015250565b6000611672601a836113ab565b915061167d8261163c565b602082019050919050565b600060208201905081810360008301526116a181611665565b9050919050565b7f4465706f73697465642030206574686572730000000000000000000000000000600082015250565b60006116de6012836113ab565b91506116e9826116a8565b602082019050919050565b6000602082019050818103600083015261170d816116d1565b9050919050565b600061171f82611248565b91507fffffffffffffffffffffffffffffffffffffffffffffffffffffffffffffffff820361175157611750611428565b5b600182019050919050565b6000819050919050565b600061ffff82169050919050565b600061178f61178a6117858461175c565b611198565b611766565b9050919050565b61179f81611774565b82525050565b60006060820190506117ba60008301866112ca565b6117c760208301856112ca565b6117d46040830184611796565b949350505050565b7f4f776e61626c653a206e6577206f776e657220697320746865207a65726f206160008201527f6464726573730000000000000000000000000000000000000000000000000000602082015250565b60006118386026836113ab565b9150611843826117dc565b604082019050919050565b600060208201905081810360008301526118678161182b565b9050919050565b600061187982611248565b915061188483611248565b9250817fffffffffffffffffffffffffffffffffffffffffffffffffffffffffffffffff04831182151516156118bd576118bc611428565b5b828202905092915050565b7f4e487b7100000000000000000000000000000000000000000000000000000000600052601260045260246000fd5b600061190282611248565b915061190d83611248565b92508261191d5761191c6118c8565b5b828204905092915050565b7f4f776e61626c653a2063616c6c6572206973206e6f7420746865206f776e6572600082015250565b600061195e6020836113ab565b915061196982611928565b602082019050919050565b6000602082019050818103600083015261198d81611951565b905091905056fea2646970667358221220bf19aa5be8f0c35295341d12d76219d6062c509b7b0b5b3a4cf3c33b2ad5320364736f6c634300080f0033",
          "opcodes": "PUSH2 0x100 PUSH1 0x40 MSTORE CALLVALUE DUP1 ISZERO PUSH3 0x12 JUMPI PUSH1 0x0 DUP1 REVERT JUMPDEST POP PUSH1 0x40 MLOAD PUSH3 0x1DCB CODESIZE SUB DUP1 PUSH3 0x1DCB DUP4 CODECOPY DUP2 DUP2 ADD PUSH1 0x40 MSTORE DUP2 ADD SWAP1 PUSH3 0x38 SWAP2 SWAP1 PUSH3 0x301 JUMP JUMPDEST PUSH3 0x58 PUSH3 0x4C PUSH3 0x106 PUSH1 0x20 SHL PUSH1 0x20 SHR JUMP JUMPDEST PUSH3 0x10E PUSH1 0x20 SHL PUSH1 0x20 SHR JUMP JUMPDEST DUP4 PUSH1 0x80 DUP2 DUP2 MSTORE POP POP DUP3 PUSH20 0xFFFFFFFFFFFFFFFFFFFFFFFFFFFFFFFFFFFFFFFF AND PUSH1 0xA0 DUP2 PUSH20 0xFFFFFFFFFFFFFFFFFFFFFFFFFFFFFFFFFFFFFFFF AND DUP2 MSTORE POP POP DUP2 PUSH20 0xFFFFFFFFFFFFFFFFFFFFFFFFFFFFFFFFFFFFFFFF AND PUSH1 0xC0 DUP2 PUSH20 0xFFFFFFFFFFFFFFFFFFFFFFFFFFFFFFFFFFFFFFFF AND DUP2 MSTORE POP POP DUP1 PUSH20 0xFFFFFFFFFFFFFFFFFFFFFFFFFFFFFFFFFFFFFFFF AND PUSH1 0xE0 DUP2 PUSH20 0xFFFFFFFFFFFFFFFFFFFFFFFFFFFFFFFFFFFFFFFF AND DUP2 MSTORE POP POP POP POP POP POP PUSH3 0x373 JUMP JUMPDEST PUSH1 0x0 CALLER SWAP1 POP SWAP1 JUMP JUMPDEST PUSH1 0x0 DUP1 PUSH1 0x0 SWAP1 SLOAD SWAP1 PUSH2 0x100 EXP SWAP1 DIV PUSH20 0xFFFFFFFFFFFFFFFFFFFFFFFFFFFFFFFFFFFFFFFF AND SWAP1 POP DUP2 PUSH1 0x0 DUP1 PUSH2 0x100 EXP DUP2 SLOAD DUP2 PUSH20 0xFFFFFFFFFFFFFFFFFFFFFFFFFFFFFFFFFFFFFFFF MUL NOT AND SWAP1 DUP4 PUSH20 0xFFFFFFFFFFFFFFFFFFFFFFFFFFFFFFFFFFFFFFFF AND MUL OR SWAP1 SSTORE POP DUP2 PUSH20 0xFFFFFFFFFFFFFFFFFFFFFFFFFFFFFFFFFFFFFFFF AND DUP2 PUSH20 0xFFFFFFFFFFFFFFFFFFFFFFFFFFFFFFFFFFFFFFFF AND PUSH32 0x8BE0079C531659141344CD1FD0A4F28419497F9722A3DAAFE3B4186F6B6457E0 PUSH1 0x40 MLOAD PUSH1 0x40 MLOAD DUP1 SWAP2 SUB SWAP1 LOG3 POP POP JUMP JUMPDEST PUSH1 0x0 DUP1 REVERT JUMPDEST PUSH1 0x0 DUP2 SWAP1 POP SWAP2 SWAP1 POP JUMP JUMPDEST PUSH3 0x1EC DUP2 PUSH3 0x1D7 JUMP JUMPDEST DUP2 EQ PUSH3 0x1F8 JUMPI PUSH1 0x0 DUP1 REVERT JUMPDEST POP JUMP JUMPDEST PUSH1 0x0 DUP2 MLOAD SWAP1 POP PUSH3 0x20C DUP2 PUSH3 0x1E1 JUMP JUMPDEST SWAP3 SWAP2 POP POP JUMP JUMPDEST PUSH1 0x0 PUSH20 0xFFFFFFFFFFFFFFFFFFFFFFFFFFFFFFFFFFFFFFFF DUP3 AND SWAP1 POP SWAP2 SWAP1 POP JUMP JUMPDEST PUSH1 0x0 PUSH3 0x23F DUP3 PUSH3 0x212 JUMP JUMPDEST SWAP1 POP SWAP2 SWAP1 POP JUMP JUMPDEST PUSH1 0x0 PUSH3 0x253 DUP3 PUSH3 0x232 JUMP JUMPDEST SWAP1 POP SWAP2 SWAP1 POP JUMP JUMPDEST PUSH3 0x265 DUP2 PUSH3 0x246 JUMP JUMPDEST DUP2 EQ PUSH3 0x271 JUMPI PUSH1 0x0 DUP1 REVERT JUMPDEST POP JUMP JUMPDEST PUSH1 0x0 DUP2 MLOAD SWAP1 POP PUSH3 0x285 DUP2 PUSH3 0x25A JUMP JUMPDEST SWAP3 SWAP2 POP POP JUMP JUMPDEST PUSH1 0x0 PUSH3 0x298 DUP3 PUSH3 0x232 JUMP JUMPDEST SWAP1 POP SWAP2 SWAP1 POP JUMP JUMPDEST PUSH3 0x2AA DUP2 PUSH3 0x28B JUMP JUMPDEST DUP2 EQ PUSH3 0x2B6 JUMPI PUSH1 0x0 DUP1 REVERT JUMPDEST POP JUMP JUMPDEST PUSH1 0x0 DUP2 MLOAD SWAP1 POP PUSH3 0x2CA DUP2 PUSH3 0x29F JUMP JUMPDEST SWAP3 SWAP2 POP POP JUMP JUMPDEST PUSH3 0x2DB DUP2 PUSH3 0x232 JUMP JUMPDEST DUP2 EQ PUSH3 0x2E7 JUMPI PUSH1 0x0 DUP1 REVERT JUMPDEST POP JUMP JUMPDEST PUSH1 0x0 DUP2 MLOAD SWAP1 POP PUSH3 0x2FB DUP2 PUSH3 0x2D0 JUMP JUMPDEST SWAP3 SWAP2 POP POP JUMP JUMPDEST PUSH1 0x0 DUP1 PUSH1 0x0 DUP1 PUSH1 0x80 DUP6 DUP8 SUB SLT ISZERO PUSH3 0x31E JUMPI PUSH3 0x31D PUSH3 0x1D2 JUMP JUMPDEST JUMPDEST PUSH1 0x0 PUSH3 0x32E DUP8 DUP3 DUP9 ADD PUSH3 0x1FB JUMP JUMPDEST SWAP5 POP POP PUSH1 0x20 PUSH3 0x341 DUP8 DUP3 DUP9 ADD PUSH3 0x274 JUMP JUMPDEST SWAP4 POP POP PUSH1 0x40 PUSH3 0x354 DUP8 DUP3 DUP9 ADD PUSH3 0x2B9 JUMP JUMPDEST SWAP3 POP POP PUSH1 0x60 PUSH3 0x367 DUP8 DUP3 DUP9 ADD PUSH3 0x2EA JUMP JUMPDEST SWAP2 POP POP SWAP3 SWAP6 SWAP2 SWAP5 POP SWAP3 POP JUMP JUMPDEST PUSH1 0x80 MLOAD PUSH1 0xA0 MLOAD PUSH1 0xC0 MLOAD PUSH1 0xE0 MLOAD PUSH2 0x19CA PUSH3 0x401 PUSH1 0x0 CODECOPY PUSH1 0x0 DUP2 DUP2 PUSH2 0x734 ADD MSTORE DUP2 DUP2 PUSH2 0xCCA ADD MSTORE PUSH2 0xE59 ADD MSTORE PUSH1 0x0 DUP2 DUP2 PUSH2 0x639 ADD MSTORE DUP2 DUP2 PUSH2 0x8B5 ADD MSTORE DUP2 DUP2 PUSH2 0x94B ADD MSTORE DUP2 DUP2 PUSH2 0xA3C ADD MSTORE PUSH2 0xAC7 ADD MSTORE PUSH1 0x0 DUP2 DUP2 PUSH2 0x3EA ADD MSTORE DUP2 DUP2 PUSH2 0x675 ADD MSTORE DUP2 DUP2 PUSH2 0x6F8 ADD MSTORE PUSH2 0xC8D ADD MSTORE PUSH1 0x0 DUP2 DUP2 PUSH2 0x4D8 ADD MSTORE DUP2 DUP2 PUSH2 0x91B ADD MSTORE DUP2 DUP2 PUSH2 0xE14 ADD MSTORE PUSH2 0x1112 ADD MSTORE PUSH2 0x19CA PUSH1 0x0 RETURN INVALID PUSH1 0x80 PUSH1 0x40 MSTORE PUSH1 0x4 CALLDATASIZE LT PUSH2 0x102 JUMPI PUSH1 0x0 CALLDATALOAD PUSH1 0xE0 SHR DUP1 PUSH4 0xBA59B66F GT PUSH2 0x95 JUMPI DUP1 PUSH4 0xD3AE26B3 GT PUSH2 0x64 JUMPI DUP1 PUSH4 0xD3AE26B3 EQ PUSH2 0x2EF JUMPI DUP1 PUSH4 0xE4B2FB79 EQ PUSH2 0x31A JUMPI DUP1 PUSH4 0xF2FDE38B EQ PUSH2 0x357 JUMPI DUP1 PUSH4 0xF6153CCD EQ PUSH2 0x380 JUMPI DUP1 PUSH4 0xFC7E286D EQ PUSH2 0x3AB JUMPI PUSH2 0x109 JUMP JUMPDEST DUP1 PUSH4 0xBA59B66F EQ PUSH2 0x252 JUMPI DUP1 PUSH4 0xBE040FB0 EQ PUSH2 0x27D JUMPI DUP1 PUSH4 0xCC028993 EQ PUSH2 0x2A8 JUMPI DUP1 PUSH4 0xD0E30DB0 EQ PUSH2 0x2E5 JUMPI PUSH2 0x109 JUMP JUMPDEST DUP1 PUSH4 0x6D2A583A GT PUSH2 0xD1 JUMPI DUP1 PUSH4 0x6D2A583A EQ PUSH2 0x1BA JUMPI DUP1 PUSH4 0x715018A6 EQ PUSH2 0x1E5 JUMPI DUP1 PUSH4 0x8DA5CB5B EQ PUSH2 0x1FC JUMPI DUP1 PUSH4 0xADA5F642 EQ PUSH2 0x227 JUMPI PUSH2 0x109 JUMP JUMPDEST DUP1 PUSH4 0x116191B6 EQ PUSH2 0x10E JUMPI DUP1 PUSH4 0x3CCFD60B EQ PUSH2 0x139 JUMPI DUP1 PUSH4 0x418F3128 EQ PUSH2 0x164 JUMPI DUP1 PUSH4 0x42B53A75 EQ PUSH2 0x18F JUMPI PUSH2 0x109 JUMP JUMPDEST CALLDATASIZE PUSH2 0x109 JUMPI STOP JUMPDEST PUSH1 0x0 DUP1 REVERT JUMPDEST CALLVALUE DUP1 ISZERO PUSH2 0x11A JUMPI PUSH1 0x0 DUP1 REVERT JUMPDEST POP PUSH2 0x123 PUSH2 0x3E8 JUMP JUMPDEST PUSH1 0x40 MLOAD PUSH2 0x130 SWAP2 SWAP1 PUSH2 0x11F7 JUMP JUMPDEST PUSH1 0x40 MLOAD DUP1 SWAP2 SUB SWAP1 RETURN JUMPDEST CALLVALUE DUP1 ISZERO PUSH2 0x145 JUMPI PUSH1 0x0 DUP1 REVERT JUMPDEST POP PUSH2 0x14E PUSH2 0x40C JUMP JUMPDEST PUSH1 0x40 MLOAD PUSH2 0x15B SWAP2 SWAP1 PUSH2 0x122D JUMP JUMPDEST PUSH1 0x40 MLOAD DUP1 SWAP2 SUB SWAP1 RETURN JUMPDEST CALLVALUE DUP1 ISZERO PUSH2 0x170 JUMPI PUSH1 0x0 DUP1 REVERT JUMPDEST POP PUSH2 0x179 PUSH2 0x8A7 JUMP JUMPDEST PUSH1 0x40 MLOAD PUSH2 0x186 SWAP2 SWAP1 PUSH2 0x1261 JUMP JUMPDEST PUSH1 0x40 MLOAD DUP1 SWAP2 SUB SWAP1 RETURN JUMPDEST CALLVALUE DUP1 ISZERO PUSH2 0x19B JUMPI PUSH1 0x0 DUP1 REVERT JUMPDEST POP PUSH2 0x1A4 PUSH2 0x8AD JUMP JUMPDEST PUSH1 0x40 MLOAD PUSH2 0x1B1 SWAP2 SWAP1 PUSH2 0x1261 JUMP JUMPDEST PUSH1 0x40 MLOAD DUP1 SWAP2 SUB SWAP1 RETURN JUMPDEST CALLVALUE DUP1 ISZERO PUSH2 0x1C6 JUMPI PUSH1 0x0 DUP1 REVERT JUMPDEST POP PUSH2 0x1CF PUSH2 0x8B3 JUMP JUMPDEST PUSH1 0x40 MLOAD PUSH2 0x1DC SWAP2 SWAP1 PUSH2 0x129D JUMP JUMPDEST PUSH1 0x40 MLOAD DUP1 SWAP2 SUB SWAP1 RETURN JUMPDEST CALLVALUE DUP1 ISZERO PUSH2 0x1F1 JUMPI PUSH1 0x0 DUP1 REVERT JUMPDEST POP PUSH2 0x1FA PUSH2 0x8D7 JUMP JUMPDEST STOP JUMPDEST CALLVALUE DUP1 ISZERO PUSH2 0x208 JUMPI PUSH1 0x0 DUP1 REVERT JUMPDEST POP PUSH2 0x211 PUSH2 0x8EB JUMP JUMPDEST PUSH1 0x40 MLOAD PUSH2 0x21E SWAP2 SWAP1 PUSH2 0x12D9 JUMP JUMPDEST PUSH1 0x40 MLOAD DUP1 SWAP2 SUB SWAP1 RETURN JUMPDEST CALLVALUE DUP1 ISZERO PUSH2 0x233 JUMPI PUSH1 0x0 DUP1 REVERT JUMPDEST POP PUSH2 0x23C PUSH2 0x914 JUMP JUMPDEST PUSH1 0x40 MLOAD PUSH2 0x249 SWAP2 SWAP1 PUSH2 0x1261 JUMP JUMPDEST PUSH1 0x40 MLOAD DUP1 SWAP2 SUB SWAP1 RETURN JUMPDEST CALLVALUE DUP1 ISZERO PUSH2 0x25E JUMPI PUSH1 0x0 DUP1 REVERT JUMPDEST POP PUSH2 0x267 PUSH2 0x919 JUMP JUMPDEST PUSH1 0x40 MLOAD PUSH2 0x274 SWAP2 SWAP1 PUSH2 0x1261 JUMP JUMPDEST PUSH1 0x40 MLOAD DUP1 SWAP2 SUB SWAP1 RETURN JUMPDEST CALLVALUE DUP1 ISZERO PUSH2 0x289 JUMPI PUSH1 0x0 DUP1 REVERT JUMPDEST POP PUSH2 0x292 PUSH2 0x93D JUMP JUMPDEST PUSH1 0x40 MLOAD PUSH2 0x29F SWAP2 SWAP1 PUSH2 0x122D JUMP JUMPDEST PUSH1 0x40 MLOAD DUP1 SWAP2 SUB SWAP1 RETURN JUMPDEST CALLVALUE DUP1 ISZERO PUSH2 0x2B4 JUMPI PUSH1 0x0 DUP1 REVERT JUMPDEST POP PUSH2 0x2CF PUSH1 0x4 DUP1 CALLDATASIZE SUB DUP2 ADD SWAP1 PUSH2 0x2CA SWAP2 SWAP1 PUSH2 0x1325 JUMP JUMPDEST PUSH2 0xB6D JUMP JUMPDEST PUSH1 0x40 MLOAD PUSH2 0x2DC SWAP2 SWAP1 PUSH2 0x1261 JUMP JUMPDEST PUSH1 0x40 MLOAD DUP1 SWAP2 SUB SWAP1 RETURN JUMPDEST PUSH2 0x2ED PUSH2 0xB85 JUMP JUMPDEST STOP JUMPDEST CALLVALUE DUP1 ISZERO PUSH2 0x2FB JUMPI PUSH1 0x0 DUP1 REVERT JUMPDEST POP PUSH2 0x304 PUSH2 0xE57 JUMP JUMPDEST PUSH1 0x40 MLOAD PUSH2 0x311 SWAP2 SWAP1 PUSH2 0x12D9 JUMP JUMPDEST PUSH1 0x40 MLOAD DUP1 SWAP2 SUB SWAP1 RETURN JUMPDEST CALLVALUE DUP1 ISZERO PUSH2 0x326 JUMPI PUSH1 0x0 DUP1 REVERT JUMPDEST POP PUSH2 0x341 PUSH1 0x4 DUP1 CALLDATASIZE SUB DUP2 ADD SWAP1 PUSH2 0x33C SWAP2 SWAP1 PUSH2 0x137E JUMP JUMPDEST PUSH2 0xE7B JUMP JUMPDEST PUSH1 0x40 MLOAD PUSH2 0x34E SWAP2 SWAP1 PUSH2 0x12D9 JUMP JUMPDEST PUSH1 0x40 MLOAD DUP1 SWAP2 SUB SWAP1 RETURN JUMPDEST CALLVALUE DUP1 ISZERO PUSH2 0x363 JUMPI PUSH1 0x0 DUP1 REVERT JUMPDEST POP PUSH2 0x37E PUSH1 0x4 DUP1 CALLDATASIZE SUB DUP2 ADD SWAP1 PUSH2 0x379 SWAP2 SWAP1 PUSH2 0x1325 JUMP JUMPDEST PUSH2 0xEBA JUMP JUMPDEST STOP JUMPDEST CALLVALUE DUP1 ISZERO PUSH2 0x38C JUMPI PUSH1 0x0 DUP1 REVERT JUMPDEST POP PUSH2 0x395 PUSH2 0xF3D JUMP JUMPDEST PUSH1 0x40 MLOAD PUSH2 0x3A2 SWAP2 SWAP1 PUSH2 0x1261 JUMP JUMPDEST PUSH1 0x40 MLOAD DUP1 SWAP2 SUB SWAP1 RETURN JUMPDEST CALLVALUE DUP1 ISZERO PUSH2 0x3B7 JUMPI PUSH1 0x0 DUP1 REVERT JUMPDEST POP PUSH2 0x3D2 PUSH1 0x4 DUP1 CALLDATASIZE SUB DUP2 ADD SWAP1 PUSH2 0x3CD SWAP2 SWAP1 PUSH2 0x1325 JUMP JUMPDEST PUSH2 0xF43 JUMP JUMPDEST PUSH1 0x40 MLOAD PUSH2 0x3DF SWAP2 SWAP1 PUSH2 0x1261 JUMP JUMPDEST PUSH1 0x40 MLOAD DUP1 SWAP2 SUB SWAP1 RETURN JUMPDEST PUSH32 0x0 DUP2 JUMP JUMPDEST PUSH1 0x0 DUP1 PUSH1 0x4 PUSH1 0x0 CALLER PUSH20 0xFFFFFFFFFFFFFFFFFFFFFFFFFFFFFFFFFFFFFFFF AND PUSH20 0xFFFFFFFFFFFFFFFFFFFFFFFFFFFFFFFFFFFFFFFF AND DUP2 MSTORE PUSH1 0x20 ADD SWAP1 DUP2 MSTORE PUSH1 0x20 ADD PUSH1 0x0 KECCAK256 SLOAD GT PUSH2 0x48F JUMPI PUSH1 0x40 MLOAD PUSH32 0x8C379A000000000000000000000000000000000000000000000000000000000 DUP2 MSTORE PUSH1 0x4 ADD PUSH2 0x486 SWAP1 PUSH2 0x1408 JUMP JUMPDEST PUSH1 0x40 MLOAD DUP1 SWAP2 SUB SWAP1 REVERT JUMPDEST PUSH1 0x0 PUSH1 0x4 PUSH1 0x0 CALLER PUSH20 0xFFFFFFFFFFFFFFFFFFFFFFFFFFFFFFFFFFFFFFFF AND PUSH20 0xFFFFFFFFFFFFFFFFFFFFFFFFFFFFFFFFFFFFFFFF AND DUP2 MSTORE PUSH1 0x20 ADD SWAP1 DUP2 MSTORE PUSH1 0x20 ADD PUSH1 0x0 KECCAK256 SLOAD SWAP1 POP PUSH1 0x0 DUP1 PUSH32 0x0 PUSH1 0x5 PUSH1 0x0 CALLER PUSH20 0xFFFFFFFFFFFFFFFFFFFFFFFFFFFFFFFFFFFFFFFF AND PUSH20 0xFFFFFFFFFFFFFFFFFFFFFFFFFFFFFFFFFFFFFFFF AND DUP2 MSTORE PUSH1 0x20 ADD SWAP1 DUP2 MSTORE PUSH1 0x20 ADD PUSH1 0x0 KECCAK256 SLOAD PUSH2 0x541 SWAP2 SWAP1 PUSH2 0x1457 JUMP JUMPDEST TIMESTAMP GT ISZERO PUSH2 0x5C4 JUMPI PUSH1 0x0 PUSH2 0x595 PUSH1 0x4 PUSH1 0x0 CALLER PUSH20 0xFFFFFFFFFFFFFFFFFFFFFFFFFFFFFFFFFFFFFFFF AND PUSH20 0xFFFFFFFFFFFFFFFFFFFFFFFFFFFFFFFFFFFFFFFF AND DUP2 MSTORE PUSH1 0x20 ADD SWAP1 DUP2 MSTORE PUSH1 0x20 ADD PUSH1 0x0 KECCAK256 SLOAD PUSH1 0x2 SLOAD PUSH2 0xF5B JUMP JUMPDEST SWAP1 POP DUP1 PUSH1 0x2 PUSH1 0x0 DUP3 DUP3 SLOAD PUSH2 0x5A9 SWAP2 SWAP1 PUSH2 0x14AD JUMP JUMPDEST SWAP3 POP POP DUP2 SWAP1 SSTORE POP DUP1 DUP5 PUSH2 0x5BC SWAP2 SWAP1 PUSH2 0x1457 JUMP JUMPDEST SWAP2 POP POP PUSH2 0x637 JUMP JUMPDEST PUSH2 0x60D DUP4 PUSH1 0x5 PUSH1 0x0 CALLER PUSH20 0xFFFFFFFFFFFFFFFFFFFFFFFFFFFFFFFFFFFFFFFF AND PUSH20 0xFFFFFFFFFFFFFFFFFFFFFFFFFFFFFFFFFFFFFFFF AND DUP2 MSTORE PUSH1 0x20 ADD SWAP1 DUP2 MSTORE PUSH1 0x20 ADD PUSH1 0x0 KECCAK256 SLOAD PUSH2 0xF9B JUMP JUMPDEST SWAP2 POP DUP2 PUSH1 0x2 PUSH1 0x0 DUP3 DUP3 SLOAD PUSH2 0x621 SWAP2 SWAP1 PUSH2 0x1457 JUMP JUMPDEST SWAP3 POP POP DUP2 SWAP1 SSTORE POP DUP2 DUP4 PUSH2 0x634 SWAP2 SWAP1 PUSH2 0x14AD JUMP JUMPDEST SWAP1 POP JUMPDEST PUSH32 0x0 PUSH20 0xFFFFFFFFFFFFFFFFFFFFFFFFFFFFFFFFFFFFFFFF AND PUSH4 0x95EA7B3 PUSH32 0x0 DUP4 PUSH1 0x40 MLOAD DUP4 PUSH4 0xFFFFFFFF AND PUSH1 0xE0 SHL DUP2 MSTORE PUSH1 0x4 ADD PUSH2 0x6B2 SWAP3 SWAP2 SWAP1 PUSH2 0x14E1 JUMP JUMPDEST PUSH1 0x20 PUSH1 0x40 MLOAD DUP1 DUP4 SUB DUP2 PUSH1 0x0 DUP8 GAS CALL ISZERO DUP1 ISZERO PUSH2 0x6D1 JUMPI RETURNDATASIZE PUSH1 0x0 DUP1 RETURNDATACOPY RETURNDATASIZE PUSH1 0x0 REVERT JUMPDEST POP POP POP POP PUSH1 0x40 MLOAD RETURNDATASIZE PUSH1 0x1F NOT PUSH1 0x1F DUP3 ADD AND DUP3 ADD DUP1 PUSH1 0x40 MSTORE POP DUP2 ADD SWAP1 PUSH2 0x6F5 SWAP2 SWAP1 PUSH2 0x1536 JUMP JUMPDEST POP PUSH32 0x0 PUSH20 0xFFFFFFFFFFFFFFFFFFFFFFFFFFFFFFFFFFFFFFFF AND PUSH4 0x80500D20 PUSH32 0x0 DUP4 ADDRESS PUSH1 0x40 MLOAD DUP5 PUSH4 0xFFFFFFFF AND PUSH1 0xE0 SHL DUP2 MSTORE PUSH1 0x4 ADD PUSH2 0x773 SWAP4 SWAP3 SWAP2 SWAP1 PUSH2 0x1563 JUMP JUMPDEST PUSH1 0x0 PUSH1 0x40 MLOAD DUP1 DUP4 SUB DUP2 PUSH1 0x0 DUP8 DUP1 EXTCODESIZE ISZERO DUP1 ISZERO PUSH2 0x78D JUMPI PUSH1 0x0 DUP1 REVERT JUMPDEST POP GAS CALL ISZERO DUP1 ISZERO PUSH2 0x7A1 JUMPI RETURNDATASIZE PUSH1 0x0 DUP1 RETURNDATACOPY RETURNDATASIZE PUSH1 0x0 REVERT JUMPDEST POP POP POP POP PUSH1 0x3 PUSH1 0x0 DUP2 SLOAD DUP1 SWAP3 SWAP2 SWAP1 PUSH2 0x7B8 SWAP1 PUSH2 0x159A JUMP JUMPDEST SWAP2 SWAP1 POP SSTORE POP PUSH1 0x0 PUSH1 0x4 PUSH1 0x0 CALLER PUSH20 0xFFFFFFFFFFFFFFFFFFFFFFFFFFFFFFFFFFFFFFFF AND PUSH20 0xFFFFFFFFFFFFFFFFFFFFFFFFFFFFFFFFFFFFFFFF AND DUP2 MSTORE PUSH1 0x20 ADD SWAP1 DUP2 MSTORE PUSH1 0x20 ADD PUSH1 0x0 KECCAK256 DUP2 SWAP1 SSTORE POP DUP3 PUSH1 0x1 PUSH1 0x0 DUP3 DUP3 SLOAD PUSH2 0x814 SWAP2 SWAP1 PUSH2 0x14AD JUMP JUMPDEST SWAP3 POP POP DUP2 SWAP1 SSTORE POP CALLER PUSH20 0xFFFFFFFFFFFFFFFFFFFFFFFFFFFFFFFFFFFFFFFF AND PUSH2 0x8FC DUP3 SWAP1 DUP2 ISZERO MUL SWAP1 PUSH1 0x40 MLOAD PUSH1 0x0 PUSH1 0x40 MLOAD DUP1 DUP4 SUB DUP2 DUP6 DUP9 DUP9 CALL SWAP4 POP POP POP POP ISZERO DUP1 ISZERO PUSH2 0x861 JUMPI RETURNDATASIZE PUSH1 0x0 DUP1 RETURNDATACOPY RETURNDATASIZE PUSH1 0x0 REVERT JUMPDEST POP PUSH32 0xADEC52FCD1408589179B85E44B434374DB078B4EAF793E7D1A1BB0AE4ECFEEE5 CALLER DUP3 DUP5 PUSH1 0x40 MLOAD PUSH2 0x895 SWAP4 SWAP3 SWAP2 SWAP1 PUSH2 0x15C3 JUMP JUMPDEST PUSH1 0x40 MLOAD DUP1 SWAP2 SUB SWAP1 LOG1 PUSH1 0x1 SWAP4 POP POP POP POP SWAP1 JUMP JUMPDEST PUSH1 0x3 SLOAD DUP2 JUMP JUMPDEST PUSH1 0x2 SLOAD DUP2 JUMP JUMPDEST PUSH32 0x0 DUP2 JUMP JUMPDEST PUSH2 0x8DF PUSH2 0xFCA JUMP JUMPDEST PUSH2 0x8E9 PUSH1 0x0 PUSH2 0x1048 JUMP JUMPDEST JUMP JUMPDEST PUSH1 0x0 DUP1 PUSH1 0x0 SWAP1 SLOAD SWAP1 PUSH2 0x100 EXP SWAP1 DIV PUSH20 0xFFFFFFFFFFFFFFFFFFFFFFFFFFFFFFFFFFFFFFFF AND SWAP1 POP SWAP1 JUMP JUMPDEST PUSH1 0x64 DUP2 JUMP JUMPDEST PUSH32 0x0 DUP2 JUMP JUMPDEST PUSH1 0x0 PUSH2 0x947 PUSH2 0xFCA JUMP JUMPDEST PUSH1 0x0 PUSH32 0x0 PUSH20 0xFFFFFFFFFFFFFFFFFFFFFFFFFFFFFFFFFFFFFFFF AND PUSH4 0x70A08231 ADDRESS PUSH1 0x40 MLOAD DUP3 PUSH4 0xFFFFFFFF AND PUSH1 0xE0 SHL DUP2 MSTORE PUSH1 0x4 ADD PUSH2 0x9A2 SWAP2 SWAP1 PUSH2 0x12D9 JUMP JUMPDEST PUSH1 0x20 PUSH1 0x40 MLOAD DUP1 DUP4 SUB DUP2 DUP7 GAS STATICCALL ISZERO DUP1 ISZERO PUSH2 0x9BF JUMPI RETURNDATASIZE PUSH1 0x0 DUP1 RETURNDATACOPY RETURNDATASIZE PUSH1 0x0 REVERT JUMPDEST POP POP POP POP PUSH1 0x40 MLOAD RETURNDATASIZE PUSH1 0x1F NOT PUSH1 0x1F DUP3 ADD AND DUP3 ADD DUP1 PUSH1 0x40 MSTORE POP DUP2 ADD SWAP1 PUSH2 0x9E3 SWAP2 SWAP1 PUSH2 0x160F JUMP JUMPDEST SWAP1 POP PUSH1 0x0 PUSH1 0x1 SLOAD DUP3 PUSH2 0x9F5 SWAP2 SWAP1 PUSH2 0x14AD JUMP JUMPDEST SWAP1 POP PUSH1 0x0 DUP2 GT PUSH2 0xA3A JUMPI PUSH1 0x40 MLOAD PUSH32 0x8C379A000000000000000000000000000000000000000000000000000000000 DUP2 MSTORE PUSH1 0x4 ADD PUSH2 0xA31 SWAP1 PUSH2 0x1688 JUMP JUMPDEST PUSH1 0x40 MLOAD DUP1 SWAP2 SUB SWAP1 REVERT JUMPDEST PUSH32 0x0 PUSH20 0xFFFFFFFFFFFFFFFFFFFFFFFFFFFFFFFFFFFFFFFF AND PUSH4 0xDB006A75 DUP3 PUSH1 0x40 MLOAD DUP3 PUSH4 0xFFFFFFFF AND PUSH1 0xE0 SHL DUP2 MSTORE PUSH1 0x4 ADD PUSH2 0xA93 SWAP2 SWAP1 PUSH2 0x1261 JUMP JUMPDEST PUSH1 0x0 PUSH1 0x40 MLOAD DUP1 DUP4 SUB DUP2 PUSH1 0x0 DUP8 DUP1 EXTCODESIZE ISZERO DUP1 ISZERO PUSH2 0xAAD JUMPI PUSH1 0x0 DUP1 REVERT JUMPDEST POP GAS CALL ISZERO DUP1 ISZERO PUSH2 0xAC1 JUMPI RETURNDATASIZE PUSH1 0x0 DUP1 RETURNDATACOPY RETURNDATASIZE PUSH1 0x0 REVERT JUMPDEST POP POP POP POP PUSH32 0x0 PUSH20 0xFFFFFFFFFFFFFFFFFFFFFFFFFFFFFFFFFFFFFFFF AND PUSH4 0xA9059CBB CALLER DUP4 PUSH1 0x40 MLOAD DUP4 PUSH4 0xFFFFFFFF AND PUSH1 0xE0 SHL DUP2 MSTORE PUSH1 0x4 ADD PUSH2 0xB20 SWAP3 SWAP2 SWAP1 PUSH2 0x14E1 JUMP JUMPDEST PUSH1 0x20 PUSH1 0x40 MLOAD DUP1 DUP4 SUB DUP2 PUSH1 0x0 DUP8 GAS CALL ISZERO DUP1 ISZERO PUSH2 0xB3F JUMPI RETURNDATASIZE PUSH1 0x0 DUP1 RETURNDATACOPY RETURNDATASIZE PUSH1 0x0 REVERT JUMPDEST POP POP POP POP PUSH1 0x40 MLOAD RETURNDATASIZE PUSH1 0x1F NOT PUSH1 0x1F DUP3 ADD AND DUP3 ADD DUP1 PUSH1 0x40 MSTORE POP DUP2 ADD SWAP1 PUSH2 0xB63 SWAP2 SWAP1 PUSH2 0x1536 JUMP JUMPDEST POP PUSH1 0x1 SWAP3 POP POP POP SWAP1 JUMP JUMPDEST PUSH1 0x5 PUSH1 0x20 MSTORE DUP1 PUSH1 0x0 MSTORE PUSH1 0x40 PUSH1 0x0 KECCAK256 PUSH1 0x0 SWAP2 POP SWAP1 POP SLOAD DUP2 JUMP JUMPDEST PUSH1 0x0 CALLVALUE GT PUSH2 0xBC8 JUMPI PUSH1 0x40 MLOAD PUSH32 0x8C379A000000000000000000000000000000000000000000000000000000000 DUP2 MSTORE PUSH1 0x4 ADD PUSH2 0xBBF SWAP1 PUSH2 0x16F4 JUMP JUMPDEST PUSH1 0x40 MLOAD DUP1 SWAP2 SUB SWAP1 REVERT JUMPDEST PUSH1 0x0 PUSH1 0x4 PUSH1 0x0 CALLER PUSH20 0xFFFFFFFFFFFFFFFFFFFFFFFFFFFFFFFFFFFFFFFF AND PUSH20 0xFFFFFFFFFFFFFFFFFFFFFFFFFFFFFFFFFFFFFFFF AND DUP2 MSTORE PUSH1 0x20 ADD SWAP1 DUP2 MSTORE PUSH1 0x20 ADD PUSH1 0x0 KECCAK256 SLOAD SUB PUSH2 0xC8B JUMPI PUSH1 0x3 PUSH1 0x0 DUP2 SLOAD DUP1 SWAP3 SWAP2 SWAP1 PUSH2 0xC22 SWAP1 PUSH2 0x1714 JUMP JUMPDEST SWAP2 SWAP1 POP SSTORE POP PUSH1 0x6 CALLER SWAP1 DUP1 PUSH1 0x1 DUP2 SLOAD ADD DUP1 DUP3 SSTORE DUP1 SWAP2 POP POP PUSH1 0x1 SWAP1 SUB SWAP1 PUSH1 0x0 MSTORE PUSH1 0x20 PUSH1 0x0 KECCAK256 ADD PUSH1 0x0 SWAP1 SWAP2 SWAP1 SWAP2 SWAP1 SWAP2 PUSH2 0x100 EXP DUP2 SLOAD DUP2 PUSH20 0xFFFFFFFFFFFFFFFFFFFFFFFFFFFFFFFFFFFFFFFF MUL NOT AND SWAP1 DUP4 PUSH20 0xFFFFFFFFFFFFFFFFFFFFFFFFFFFFFFFFFFFFFFFF AND MUL OR SWAP1 SSTORE POP JUMPDEST PUSH32 0x0 PUSH20 0xFFFFFFFFFFFFFFFFFFFFFFFFFFFFFFFFFFFFFFFF AND PUSH4 0x474CF53D CALLVALUE PUSH32 0x0 ADDRESS PUSH1 0x0 PUSH1 0x40 MLOAD DUP6 PUSH4 0xFFFFFFFF AND PUSH1 0xE0 SHL DUP2 MSTORE PUSH1 0x4 ADD PUSH2 0xD0A SWAP4 SWAP3 SWAP2 SWAP1 PUSH2 0x17A5 JUMP JUMPDEST PUSH1 0x0 PUSH1 0x40 MLOAD DUP1 DUP4 SUB DUP2 DUP6 DUP9 DUP1 EXTCODESIZE ISZERO DUP1 ISZERO PUSH2 0xD23 JUMPI PUSH1 0x0 DUP1 REVERT JUMPDEST POP GAS CALL ISZERO DUP1 ISZERO PUSH2 0xD37 JUMPI RETURNDATASIZE PUSH1 0x0 DUP1 RETURNDATACOPY RETURNDATASIZE PUSH1 0x0 REVERT JUMPDEST POP POP POP POP POP CALLVALUE PUSH1 0x1 PUSH1 0x0 DUP3 DUP3 SLOAD PUSH2 0xD4E SWAP2 SWAP1 PUSH2 0x1457 JUMP JUMPDEST SWAP3 POP POP DUP2 SWAP1 SSTORE POP CALLVALUE PUSH1 0x4 PUSH1 0x0 CALLER PUSH20 0xFFFFFFFFFFFFFFFFFFFFFFFFFFFFFFFFFFFFFFFF AND PUSH20 0xFFFFFFFFFFFFFFFFFFFFFFFFFFFFFFFFFFFFFFFF AND DUP2 MSTORE PUSH1 0x20 ADD SWAP1 DUP2 MSTORE PUSH1 0x20 ADD PUSH1 0x0 KECCAK256 PUSH1 0x0 DUP3 DUP3 SLOAD PUSH2 0xDA4 SWAP2 SWAP1 PUSH2 0x1457 JUMP JUMPDEST SWAP3 POP POP DUP2 SWAP1 SSTORE POP TIMESTAMP PUSH1 0x5 PUSH1 0x0 CALLER PUSH20 0xFFFFFFFFFFFFFFFFFFFFFFFFFFFFFFFFFFFFFFFF AND PUSH20 0xFFFFFFFFFFFFFFFFFFFFFFFFFFFFFFFFFFFFFFFF AND DUP2 MSTORE PUSH1 0x20 ADD SWAP1 DUP2 MSTORE PUSH1 0x20 ADD PUSH1 0x0 KECCAK256 DUP2 SWAP1 SSTORE POP PUSH32 0x73A19DD210F1A7F902193214C0EE91DD35EE5B4D920CBA8D519ECA65A7B488CA CALLER CALLVALUE PUSH32 0x0 TIMESTAMP PUSH2 0xE3E SWAP2 SWAP1 PUSH2 0x1457 JUMP JUMPDEST PUSH1 0x40 MLOAD PUSH2 0xE4D SWAP4 SWAP3 SWAP2 SWAP1 PUSH2 0x15C3 JUMP JUMPDEST PUSH1 0x40 MLOAD DUP1 SWAP2 SUB SWAP1 LOG1 JUMP JUMPDEST PUSH32 0x0 DUP2 JUMP JUMPDEST PUSH1 0x6 DUP2 DUP2 SLOAD DUP2 LT PUSH2 0xE8B JUMPI PUSH1 0x0 DUP1 REVERT JUMPDEST SWAP1 PUSH1 0x0 MSTORE PUSH1 0x20 PUSH1 0x0 KECCAK256 ADD PUSH1 0x0 SWAP2 POP SLOAD SWAP1 PUSH2 0x100 EXP SWAP1 DIV PUSH20 0xFFFFFFFFFFFFFFFFFFFFFFFFFFFFFFFFFFFFFFFF AND DUP2 JUMP JUMPDEST PUSH2 0xEC2 PUSH2 0xFCA JUMP JUMPDEST PUSH1 0x0 PUSH20 0xFFFFFFFFFFFFFFFFFFFFFFFFFFFFFFFFFFFFFFFF AND DUP2 PUSH20 0xFFFFFFFFFFFFFFFFFFFFFFFFFFFFFFFFFFFFFFFF AND SUB PUSH2 0xF31 JUMPI PUSH1 0x40 MLOAD PUSH32 0x8C379A000000000000000000000000000000000000000000000000000000000 DUP2 MSTORE PUSH1 0x4 ADD PUSH2 0xF28 SWAP1 PUSH2 0x184E JUMP JUMPDEST PUSH1 0x40 MLOAD DUP1 SWAP2 SUB SWAP1 REVERT JUMPDEST PUSH2 0xF3A DUP2 PUSH2 0x1048 JUMP JUMPDEST POP JUMP JUMPDEST PUSH1 0x1 SLOAD DUP2 JUMP JUMPDEST PUSH1 0x4 PUSH1 0x20 MSTORE DUP1 PUSH1 0x0 MSTORE PUSH1 0x40 PUSH1 0x0 KECCAK256 PUSH1 0x0 SWAP2 POP SWAP1 POP SLOAD DUP2 JUMP JUMPDEST PUSH1 0x0 DUP1 PUSH1 0x1 SLOAD PUSH1 0x64 DUP6 PUSH2 0xF6E SWAP2 SWAP1 PUSH2 0x186E JUMP JUMPDEST PUSH2 0xF78 SWAP2 SWAP1 PUSH2 0x18F7 JUMP JUMPDEST SWAP1 POP PUSH1 0x64 DUP2 DUP5 PUSH2 0xF88 SWAP2 SWAP1 PUSH2 0x186E JUMP JUMPDEST PUSH2 0xF92 SWAP2 SWAP1 PUSH2 0x18F7 JUMP JUMPDEST SWAP2 POP POP SWAP3 SWAP2 POP POP JUMP JUMPDEST PUSH1 0x0 DUP1 PUSH2 0xFA7 DUP4 PUSH2 0x110C JUMP JUMPDEST SWAP1 POP PUSH1 0x64 DUP2 DUP6 PUSH2 0xFB7 SWAP2 SWAP1 PUSH2 0x186E JUMP JUMPDEST PUSH2 0xFC1 SWAP2 SWAP1 PUSH2 0x18F7 JUMP JUMPDEST SWAP2 POP POP SWAP3 SWAP2 POP POP JUMP JUMPDEST PUSH2 0xFD2 PUSH2 0x1170 JUMP JUMPDEST PUSH20 0xFFFFFFFFFFFFFFFFFFFFFFFFFFFFFFFFFFFFFFFF AND PUSH2 0xFF0 PUSH2 0x8EB JUMP JUMPDEST PUSH20 0xFFFFFFFFFFFFFFFFFFFFFFFFFFFFFFFFFFFFFFFF AND EQ PUSH2 0x1046 JUMPI PUSH1 0x40 MLOAD PUSH32 0x8C379A000000000000000000000000000000000000000000000000000000000 DUP2 MSTORE PUSH1 0x4 ADD PUSH2 0x103D SWAP1 PUSH2 0x1974 JUMP JUMPDEST PUSH1 0x40 MLOAD DUP1 SWAP2 SUB SWAP1 REVERT JUMPDEST JUMP JUMPDEST PUSH1 0x0 DUP1 PUSH1 0x0 SWAP1 SLOAD SWAP1 PUSH2 0x100 EXP SWAP1 DIV PUSH20 0xFFFFFFFFFFFFFFFFFFFFFFFFFFFFFFFFFFFFFFFF AND SWAP1 POP DUP2 PUSH1 0x0 DUP1 PUSH2 0x100 EXP DUP2 SLOAD DUP2 PUSH20 0xFFFFFFFFFFFFFFFFFFFFFFFFFFFFFFFFFFFFFFFF MUL NOT AND SWAP1 DUP4 PUSH20 0xFFFFFFFFFFFFFFFFFFFFFFFFFFFFFFFFFFFFFFFF AND MUL OR SWAP1 SSTORE POP DUP2 PUSH20 0xFFFFFFFFFFFFFFFFFFFFFFFFFFFFFFFFFFFFFFFF AND DUP2 PUSH20 0xFFFFFFFFFFFFFFFFFFFFFFFFFFFFFFFFFFFFFFFF AND PUSH32 0x8BE0079C531659141344CD1FD0A4F28419497F9722A3DAAFE3B4186F6B6457E0 PUSH1 0x40 MLOAD PUSH1 0x40 MLOAD DUP1 SWAP2 SUB SWAP1 LOG3 POP POP JUMP JUMPDEST PUSH1 0x0 PUSH1 0x2 PUSH32 0x0 PUSH1 0x64 DUP5 TIMESTAMP PUSH2 0x113F SWAP2 SWAP1 PUSH2 0x14AD JUMP JUMPDEST PUSH2 0x1149 SWAP2 SWAP1 PUSH2 0x186E JUMP JUMPDEST PUSH2 0x1153 SWAP2 SWAP1 PUSH2 0x18F7 JUMP JUMPDEST PUSH1 0x64 PUSH2 0x115F SWAP2 SWAP1 PUSH2 0x14AD JUMP JUMPDEST PUSH2 0x1169 SWAP2 SWAP1 PUSH2 0x18F7 JUMP JUMPDEST SWAP1 POP SWAP2 SWAP1 POP JUMP JUMPDEST PUSH1 0x0 CALLER SWAP1 POP SWAP1 JUMP JUMPDEST PUSH1 0x0 PUSH20 0xFFFFFFFFFFFFFFFFFFFFFFFFFFFFFFFFFFFFFFFF DUP3 AND SWAP1 POP SWAP2 SWAP1 POP JUMP JUMPDEST PUSH1 0x0 DUP2 SWAP1 POP SWAP2 SWAP1 POP JUMP JUMPDEST PUSH1 0x0 PUSH2 0x11BD PUSH2 0x11B8 PUSH2 0x11B3 DUP5 PUSH2 0x1178 JUMP JUMPDEST PUSH2 0x1198 JUMP JUMPDEST PUSH2 0x1178 JUMP JUMPDEST SWAP1 POP SWAP2 SWAP1 POP JUMP JUMPDEST PUSH1 0x0 PUSH2 0x11CF DUP3 PUSH2 0x11A2 JUMP JUMPDEST SWAP1 POP SWAP2 SWAP1 POP JUMP JUMPDEST PUSH1 0x0 PUSH2 0x11E1 DUP3 PUSH2 0x11C4 JUMP JUMPDEST SWAP1 POP SWAP2 SWAP1 POP JUMP JUMPDEST PUSH2 0x11F1 DUP2 PUSH2 0x11D6 JUMP JUMPDEST DUP3 MSTORE POP POP JUMP JUMPDEST PUSH1 0x0 PUSH1 0x20 DUP3 ADD SWAP1 POP PUSH2 0x120C PUSH1 0x0 DUP4 ADD DUP5 PUSH2 0x11E8 JUMP JUMPDEST SWAP3 SWAP2 POP POP JUMP JUMPDEST PUSH1 0x0 DUP2 ISZERO ISZERO SWAP1 POP SWAP2 SWAP1 POP JUMP JUMPDEST PUSH2 0x1227 DUP2 PUSH2 0x1212 JUMP JUMPDEST DUP3 MSTORE POP POP JUMP JUMPDEST PUSH1 0x0 PUSH1 0x20 DUP3 ADD SWAP1 POP PUSH2 0x1242 PUSH1 0x0 DUP4 ADD DUP5 PUSH2 0x121E JUMP JUMPDEST SWAP3 SWAP2 POP POP JUMP JUMPDEST PUSH1 0x0 DUP2 SWAP1 POP SWAP2 SWAP1 POP JUMP JUMPDEST PUSH2 0x125B DUP2 PUSH2 0x1248 JUMP JUMPDEST DUP3 MSTORE POP POP JUMP JUMPDEST PUSH1 0x0 PUSH1 0x20 DUP3 ADD SWAP1 POP PUSH2 0x1276 PUSH1 0x0 DUP4 ADD DUP5 PUSH2 0x1252 JUMP JUMPDEST SWAP3 SWAP2 POP POP JUMP JUMPDEST PUSH1 0x0 PUSH2 0x1287 DUP3 PUSH2 0x11C4 JUMP JUMPDEST SWAP1 POP SWAP2 SWAP1 POP JUMP JUMPDEST PUSH2 0x1297 DUP2 PUSH2 0x127C JUMP JUMPDEST DUP3 MSTORE POP POP JUMP JUMPDEST PUSH1 0x0 PUSH1 0x20 DUP3 ADD SWAP1 POP PUSH2 0x12B2 PUSH1 0x0 DUP4 ADD DUP5 PUSH2 0x128E JUMP JUMPDEST SWAP3 SWAP2 POP POP JUMP JUMPDEST PUSH1 0x0 PUSH2 0x12C3 DUP3 PUSH2 0x1178 JUMP JUMPDEST SWAP1 POP SWAP2 SWAP1 POP JUMP JUMPDEST PUSH2 0x12D3 DUP2 PUSH2 0x12B8 JUMP JUMPDEST DUP3 MSTORE POP POP JUMP JUMPDEST PUSH1 0x0 PUSH1 0x20 DUP3 ADD SWAP1 POP PUSH2 0x12EE PUSH1 0x0 DUP4 ADD DUP5 PUSH2 0x12CA JUMP JUMPDEST SWAP3 SWAP2 POP POP JUMP JUMPDEST PUSH1 0x0 DUP1 REVERT JUMPDEST PUSH2 0x1302 DUP2 PUSH2 0x12B8 JUMP JUMPDEST DUP2 EQ PUSH2 0x130D JUMPI PUSH1 0x0 DUP1 REVERT JUMPDEST POP JUMP JUMPDEST PUSH1 0x0 DUP2 CALLDATALOAD SWAP1 POP PUSH2 0x131F DUP2 PUSH2 0x12F9 JUMP JUMPDEST SWAP3 SWAP2 POP POP JUMP JUMPDEST PUSH1 0x0 PUSH1 0x20 DUP3 DUP5 SUB SLT ISZERO PUSH2 0x133B JUMPI PUSH2 0x133A PUSH2 0x12F4 JUMP JUMPDEST JUMPDEST PUSH1 0x0 PUSH2 0x1349 DUP5 DUP3 DUP6 ADD PUSH2 0x1310 JUMP JUMPDEST SWAP2 POP POP SWAP3 SWAP2 POP POP JUMP JUMPDEST PUSH2 0x135B DUP2 PUSH2 0x1248 JUMP JUMPDEST DUP2 EQ PUSH2 0x1366 JUMPI PUSH1 0x0 DUP1 REVERT JUMPDEST POP JUMP JUMPDEST PUSH1 0x0 DUP2 CALLDATALOAD SWAP1 POP PUSH2 0x1378 DUP2 PUSH2 0x1352 JUMP JUMPDEST SWAP3 SWAP2 POP POP JUMP JUMPDEST PUSH1 0x0 PUSH1 0x20 DUP3 DUP5 SUB SLT ISZERO PUSH2 0x1394 JUMPI PUSH2 0x1393 PUSH2 0x12F4 JUMP JUMPDEST JUMPDEST PUSH1 0x0 PUSH2 0x13A2 DUP5 DUP3 DUP6 ADD PUSH2 0x1369 JUMP JUMPDEST SWAP2 POP POP SWAP3 SWAP2 POP POP JUMP JUMPDEST PUSH1 0x0 DUP3 DUP3 MSTORE PUSH1 0x20 DUP3 ADD SWAP1 POP SWAP3 SWAP2 POP POP JUMP JUMPDEST PUSH32 0x4E6F206465706F73697400000000000000000000000000000000000000000000 PUSH1 0x0 DUP3 ADD MSTORE POP JUMP JUMPDEST PUSH1 0x0 PUSH2 0x13F2 PUSH1 0xA DUP4 PUSH2 0x13AB JUMP JUMPDEST SWAP2 POP PUSH2 0x13FD DUP3 PUSH2 0x13BC JUMP JUMPDEST PUSH1 0x20 DUP3 ADD SWAP1 POP SWAP2 SWAP1 POP JUMP JUMPDEST PUSH1 0x0 PUSH1 0x20 DUP3 ADD SWAP1 POP DUP2 DUP2 SUB PUSH1 0x0 DUP4 ADD MSTORE PUSH2 0x1421 DUP2 PUSH2 0x13E5 JUMP JUMPDEST SWAP1 POP SWAP2 SWAP1 POP JUMP JUMPDEST PUSH32 0x4E487B7100000000000000000000000000000000000000000000000000000000 PUSH1 0x0 MSTORE PUSH1 0x11 PUSH1 0x4 MSTORE PUSH1 0x24 PUSH1 0x0 REVERT JUMPDEST PUSH1 0x0 PUSH2 0x1462 DUP3 PUSH2 0x1248 JUMP JUMPDEST SWAP2 POP PUSH2 0x146D DUP4 PUSH2 0x1248 JUMP JUMPDEST SWAP3 POP DUP3 PUSH32 0xFFFFFFFFFFFFFFFFFFFFFFFFFFFFFFFFFFFFFFFFFFFFFFFFFFFFFFFFFFFFFFFF SUB DUP3 GT ISZERO PUSH2 0x14A2 JUMPI PUSH2 0x14A1 PUSH2 0x1428 JUMP JUMPDEST JUMPDEST DUP3 DUP3 ADD SWAP1 POP SWAP3 SWAP2 POP POP JUMP JUMPDEST PUSH1 0x0 PUSH2 0x14B8 DUP3 PUSH2 0x1248 JUMP JUMPDEST SWAP2 POP PUSH2 0x14C3 DUP4 PUSH2 0x1248 JUMP JUMPDEST SWAP3 POP DUP3 DUP3 LT ISZERO PUSH2 0x14D6 JUMPI PUSH2 0x14D5 PUSH2 0x1428 JUMP JUMPDEST JUMPDEST DUP3 DUP3 SUB SWAP1 POP SWAP3 SWAP2 POP POP JUMP JUMPDEST PUSH1 0x0 PUSH1 0x40 DUP3 ADD SWAP1 POP PUSH2 0x14F6 PUSH1 0x0 DUP4 ADD DUP6 PUSH2 0x12CA JUMP JUMPDEST PUSH2 0x1503 PUSH1 0x20 DUP4 ADD DUP5 PUSH2 0x1252 JUMP JUMPDEST SWAP4 SWAP3 POP POP POP JUMP JUMPDEST PUSH2 0x1513 DUP2 PUSH2 0x1212 JUMP JUMPDEST DUP2 EQ PUSH2 0x151E JUMPI PUSH1 0x0 DUP1 REVERT JUMPDEST POP JUMP JUMPDEST PUSH1 0x0 DUP2 MLOAD SWAP1 POP PUSH2 0x1530 DUP2 PUSH2 0x150A JUMP JUMPDEST SWAP3 SWAP2 POP POP JUMP JUMPDEST PUSH1 0x0 PUSH1 0x20 DUP3 DUP5 SUB SLT ISZERO PUSH2 0x154C JUMPI PUSH2 0x154B PUSH2 0x12F4 JUMP JUMPDEST JUMPDEST PUSH1 0x0 PUSH2 0x155A DUP5 DUP3 DUP6 ADD PUSH2 0x1521 JUMP JUMPDEST SWAP2 POP POP SWAP3 SWAP2 POP POP JUMP JUMPDEST PUSH1 0x0 PUSH1 0x60 DUP3 ADD SWAP1 POP PUSH2 0x1578 PUSH1 0x0 DUP4 ADD DUP7 PUSH2 0x12CA JUMP JUMPDEST PUSH2 0x1585 PUSH1 0x20 DUP4 ADD DUP6 PUSH2 0x1252 JUMP JUMPDEST PUSH2 0x1592 PUSH1 0x40 DUP4 ADD DUP5 PUSH2 0x12CA JUMP JUMPDEST SWAP5 SWAP4 POP POP POP POP JUMP JUMPDEST PUSH1 0x0 PUSH2 0x15A5 DUP3 PUSH2 0x1248 JUMP JUMPDEST SWAP2 POP PUSH1 0x0 DUP3 SUB PUSH2 0x15B8 JUMPI PUSH2 0x15B7 PUSH2 0x1428 JUMP JUMPDEST JUMPDEST PUSH1 0x1 DUP3 SUB SWAP1 POP SWAP2 SWAP1 POP JUMP JUMPDEST PUSH1 0x0 PUSH1 0x60 DUP3 ADD SWAP1 POP PUSH2 0x15D8 PUSH1 0x0 DUP4 ADD DUP7 PUSH2 0x12CA JUMP JUMPDEST PUSH2 0x15E5 PUSH1 0x20 DUP4 ADD DUP6 PUSH2 0x1252 JUMP JUMPDEST PUSH2 0x15F2 PUSH1 0x40 DUP4 ADD DUP5 PUSH2 0x1252 JUMP JUMPDEST SWAP5 SWAP4 POP POP POP POP JUMP JUMPDEST PUSH1 0x0 DUP2 MLOAD SWAP1 POP PUSH2 0x1609 DUP2 PUSH2 0x1352 JUMP JUMPDEST SWAP3 SWAP2 POP POP JUMP JUMPDEST PUSH1 0x0 PUSH1 0x20 DUP3 DUP5 SUB SLT ISZERO PUSH2 0x1625 JUMPI PUSH2 0x1624 PUSH2 0x12F4 JUMP JUMPDEST JUMPDEST PUSH1 0x0 PUSH2 0x1633 DUP5 DUP3 DUP6 ADD PUSH2 0x15FA JUMP JUMPDEST SWAP2 POP POP SWAP3 SWAP2 POP POP JUMP JUMPDEST PUSH32 0x4E6F2072657761726420746F6B656E7320746F2072656465656D000000000000 PUSH1 0x0 DUP3 ADD MSTORE POP JUMP JUMPDEST PUSH1 0x0 PUSH2 0x1672 PUSH1 0x1A DUP4 PUSH2 0x13AB JUMP JUMPDEST SWAP2 POP PUSH2 0x167D DUP3 PUSH2 0x163C JUMP JUMPDEST PUSH1 0x20 DUP3 ADD SWAP1 POP SWAP2 SWAP1 POP JUMP JUMPDEST PUSH1 0x0 PUSH1 0x20 DUP3 ADD SWAP1 POP DUP2 DUP2 SUB PUSH1 0x0 DUP4 ADD MSTORE PUSH2 0x16A1 DUP2 PUSH2 0x1665 JUMP JUMPDEST SWAP1 POP SWAP2 SWAP1 POP JUMP JUMPDEST PUSH32 0x4465706F73697465642030206574686572730000000000000000000000000000 PUSH1 0x0 DUP3 ADD MSTORE POP JUMP JUMPDEST PUSH1 0x0 PUSH2 0x16DE PUSH1 0x12 DUP4 PUSH2 0x13AB JUMP JUMPDEST SWAP2 POP PUSH2 0x16E9 DUP3 PUSH2 0x16A8 JUMP JUMPDEST PUSH1 0x20 DUP3 ADD SWAP1 POP SWAP2 SWAP1 POP JUMP JUMPDEST PUSH1 0x0 PUSH1 0x20 DUP3 ADD SWAP1 POP DUP2 DUP2 SUB PUSH1 0x0 DUP4 ADD MSTORE PUSH2 0x170D DUP2 PUSH2 0x16D1 JUMP JUMPDEST SWAP1 POP SWAP2 SWAP1 POP JUMP JUMPDEST PUSH1 0x0 PUSH2 0x171F DUP3 PUSH2 0x1248 JUMP JUMPDEST SWAP2 POP PUSH32 0xFFFFFFFFFFFFFFFFFFFFFFFFFFFFFFFFFFFFFFFFFFFFFFFFFFFFFFFFFFFFFFFF DUP3 SUB PUSH2 0x1751 JUMPI PUSH2 0x1750 PUSH2 0x1428 JUMP JUMPDEST JUMPDEST PUSH1 0x1 DUP3 ADD SWAP1 POP SWAP2 SWAP1 POP JUMP JUMPDEST PUSH1 0x0 DUP2 SWAP1 POP SWAP2 SWAP1 POP JUMP JUMPDEST PUSH1 0x0 PUSH2 0xFFFF DUP3 AND SWAP1 POP SWAP2 SWAP1 POP JUMP JUMPDEST PUSH1 0x0 PUSH2 0x178F PUSH2 0x178A PUSH2 0x1785 DUP5 PUSH2 0x175C JUMP JUMPDEST PUSH2 0x1198 JUMP JUMPDEST PUSH2 0x1766 JUMP JUMPDEST SWAP1 POP SWAP2 SWAP1 POP JUMP JUMPDEST PUSH2 0x179F DUP2 PUSH2 0x1774 JUMP JUMPDEST DUP3 MSTORE POP POP JUMP JUMPDEST PUSH1 0x0 PUSH1 0x60 DUP3 ADD SWAP1 POP PUSH2 0x17BA PUSH1 0x0 DUP4 ADD DUP7 PUSH2 0x12CA JUMP JUMPDEST PUSH2 0x17C7 PUSH1 0x20 DUP4 ADD DUP6 PUSH2 0x12CA JUMP JUMPDEST PUSH2 0x17D4 PUSH1 0x40 DUP4 ADD DUP5 PUSH2 0x1796 JUMP JUMPDEST SWAP5 SWAP4 POP POP POP POP JUMP JUMPDEST PUSH32 0x4F776E61626C653A206E6577206F776E657220697320746865207A65726F2061 PUSH1 0x0 DUP3 ADD MSTORE PUSH32 0x6464726573730000000000000000000000000000000000000000000000000000 PUSH1 0x20 DUP3 ADD MSTORE POP JUMP JUMPDEST PUSH1 0x0 PUSH2 0x1838 PUSH1 0x26 DUP4 PUSH2 0x13AB JUMP JUMPDEST SWAP2 POP PUSH2 0x1843 DUP3 PUSH2 0x17DC JUMP JUMPDEST PUSH1 0x40 DUP3 ADD SWAP1 POP SWAP2 SWAP1 POP JUMP JUMPDEST PUSH1 0x0 PUSH1 0x20 DUP3 ADD SWAP1 POP DUP2 DUP2 SUB PUSH1 0x0 DUP4 ADD MSTORE PUSH2 0x1867 DUP2 PUSH2 0x182B JUMP JUMPDEST SWAP1 POP SWAP2 SWAP1 POP JUMP JUMPDEST PUSH1 0x0 PUSH2 0x1879 DUP3 PUSH2 0x1248 JUMP JUMPDEST SWAP2 POP PUSH2 0x1884 DUP4 PUSH2 0x1248 JUMP JUMPDEST SWAP3 POP DUP2 PUSH32 0xFFFFFFFFFFFFFFFFFFFFFFFFFFFFFFFFFFFFFFFFFFFFFFFFFFFFFFFFFFFFFFFF DIV DUP4 GT DUP3 ISZERO ISZERO AND ISZERO PUSH2 0x18BD JUMPI PUSH2 0x18BC PUSH2 0x1428 JUMP JUMPDEST JUMPDEST DUP3 DUP3 MUL SWAP1 POP SWAP3 SWAP2 POP POP JUMP JUMPDEST PUSH32 0x4E487B7100000000000000000000000000000000000000000000000000000000 PUSH1 0x0 MSTORE PUSH1 0x12 PUSH1 0x4 MSTORE PUSH1 0x24 PUSH1 0x0 REVERT JUMPDEST PUSH1 0x0 PUSH2 0x1902 DUP3 PUSH2 0x1248 JUMP JUMPDEST SWAP2 POP PUSH2 0x190D DUP4 PUSH2 0x1248 JUMP JUMPDEST SWAP3 POP DUP3 PUSH2 0x191D JUMPI PUSH2 0x191C PUSH2 0x18C8 JUMP JUMPDEST JUMPDEST DUP3 DUP3 DIV SWAP1 POP SWAP3 SWAP2 POP POP JUMP JUMPDEST PUSH32 0x4F776E61626C653A2063616C6C6572206973206E6F7420746865206F776E6572 PUSH1 0x0 DUP3 ADD MSTORE POP JUMP JUMPDEST PUSH1 0x0 PUSH2 0x195E PUSH1 0x20 DUP4 PUSH2 0x13AB JUMP JUMPDEST SWAP2 POP PUSH2 0x1969 DUP3 PUSH2 0x1928 JUMP JUMPDEST PUSH1 0x20 DUP3 ADD SWAP1 POP SWAP2 SWAP1 POP JUMP JUMPDEST PUSH1 0x0 PUSH1 0x20 DUP3 ADD SWAP1 POP DUP2 DUP2 SUB PUSH1 0x0 DUP4 ADD MSTORE PUSH2 0x198D DUP2 PUSH2 0x1951 JUMP JUMPDEST SWAP1 POP SWAP2 SWAP1 POP JUMP INVALID LOG2 PUSH5 0x6970667358 0x22 SLT KECCAK256 0xBF NOT 0xAA JUMPDEST 0xE8 CREATE 0xC3 MSTORE SWAP6 CALLVALUE SAR SLT 0xD7 PUSH3 0x19D606 0x2C POP SWAP12 PUSH28 0xB5B3A4CF3C33B2AD5320364736F6C634300080F0033000000000000 "
        },
        "methodIdentifiers": {
          "BASIS_POINT()": "ada5f642",
          "aWETH()": "6d2a583a",
          "deposit()": "d0e30db0",
          "depositors(uint256)": "e4b2fb79",
          "deposits(address)": "fc7e286d",
          "gateway()": "116191b6",
          "lendingPoolAddress()": "d3ae26b3",
          "lockPeriods(address)": "cc028993",
          "owner()": "8da5cb5b",
          "penalties()": "42b53a75",
          "redeem()": "be040fb0",
          "renounceOwnership()": "715018a6",
          "timeframe()": "ba59b66f",
          "totalDeposit()": "f6153ccd",
          "totalDepositors()": "418f3128",
          "transferOwnership(address)": "f2fde38b",
          "withdraw()": "3ccfd60b"
        }
      },
      "userdoc": {
        "kind": "user",
        "methods": {},
        "version": 1
      }
    }
  }
}